:10000000F8FF002011040000B7210000B721000014
:10001000B7210000B7210000B7210000B721000080
:10002000B7210000B7210000B7210000B721000070
:10003000B7210000B7210000B7210000B721000060
:10004000B7210000B7210000B7210000B721000050
:10040000FFFFFFFFFFFFFFFFFFFFFFFFFEFFFFFFFD
:1004100062B605F057FBFEE72DE9F0470400002027
:10042000DFF8AC1A08600020DFF8A81A0860232063
:10043000DFF8A41A0860002081465FFA89F9B9F153
:10044000800F16DA5FFA89F919F804005FFA89F962
:10045000DFF8881A09F801005FFA89F919F8040031
:100460005FFA89F9DFF8781A09F8010019F1010932
:10047000E3E7DFF8E80D0068002804D50020DFF886
:10048000E01D08700FE0DFF8D40D0068762804DB6B
:100490007520DFF8CC1D087005E0DFF8C00D00689E
:1004A000DFF8BC1D0870DFF8B80D0078002861D0B7
:1004B00000200500EDB2052D2BDA681C0600F6B20F
:1004C000DFF8980D0068864221DAEDB2DFF80C0AF9
:1004D000285CF6B2DFF8041A715C884215D2EDB2DE
:1004E000DFF8F8092856DFF87C1D0870F6B2DFF84F
:1004F000EC09305CEDB2DFF8E4196854DFF8640D04
:100500000078F6B2DFF8D4197054761CD7E76D1C6A
:10051000D0E705200500EDB20A2D2BDA681C060095
:10052000F6B2DFF8380D0068864221DAF6B2DFF85D
:10053000AC09305CEDB2DFF8A419695C884215D2D1
:10054000EDB2DFF898092856DFF8181D0870F6B2EA
:10055000DFF88809305CEDB2DFF880196854DFF805
:10056000040D0078F6B2DFF874197054761CD7E7E2
:100570006D1CD0E7DFF8E80C00780500EDB2DFF87D
:10058000E00C0078401D854228DA681C0600F6B2AF
:10059000802E21DAEDB2DFF84409285CF6B2DFF8EC
:1005A0003C19715C884215D2EDB2DFF8300928564B
:1005B000DFF8B01C0870F6B2DFF82009305CEDB24D
:1005C000DFF818196854DFF89C0C0078F6B2DFF8F1
:1005D0000C197054761CDAE76D1CCFE7DFF8800C3D
:1005E0000078401D0500EDB2DFF8740C00780A3089
:1005F000854228DA681C0600F6B2802E21DAF6B2AF
:10060000DFF8D808305CEDB2DFF8D018695C8842BA
:1006100015D2EDB2DFF8C4082856DFF8481C087080
:10062000F6B2DFF8B808305CEDB2DFF8B018685405
:10063000DFF8300C0078F6B2DFF8A0187054761CA2
:10064000DAE76D1CCFE7DFF8180C0078DFF88C18BC
:10065000405CDFF888180978884206D2DFF87C0809
:100660000078DFF8041C086008E0DFF8F40B00787D
:10067000DFF86818405CDFF8F01B0860DFF8EC0B6F
:100680000068DFF8E41B0968884215DADFF8D80B48
:100690000068DFF8D81B0968401A00F02BFF020041
:1006A0000B000020DFF8C81B00F03CFF01F06EF8E3
:1006B000DFF8C01B086003E00020DFF8B81B08600B
:1006C00000200500EDB2802D24DADFF8A00B0068D1
:1006D000EDB2295D884209DAEDB2285DDFF88C1BA6
:1006E0000968401ADFF8901B086003E00020DFF87B
:1006F000881B0860DFF8800B006801F08FF8DFF8D6
:10070000741B096801F0A2F801F00CF9EDB228554C
:100710006D1CD7E7DFF8480B007800282FD00020A9
:100720000500EDB20A2D2ADADFF8400B0068EDB2C1
:10073000DFF8A817695C88420BDAEDB2DFF89C0796
:10074000285CDFF8281B0968401ADFF82C1B0860BA
:1007500003E00020DFF8201B0860DFF81C0B0068B6
:1007600001F05CF8DFF80C1B096801F06FF801F08C
:10077000D9F8EDB2DFF8641768546D1CD1E7DFF8E3
:10078000E00A00780500EDB2DFF8D40A00780A30FC
:1007900085422ADADFF8D40A0068EDB2DFF83C17A8
:1007A000695C88420BDAEDB2DFF83007285CDFF8CD
:1007B000BC1A0968401ADFF8C01A086003E000207C
:1007C000DFF8B41A0860DFF8B00A006801F026F814
:1007D000DFF8A01A096801F039F801F0A3F8EDB2CA
:1007E000DFF8F81668546D1CCDE70020DFF88C1A8E
:1007F000086000200500EDB27F2D0EDAEDB2DFF8C3
:10080000E006285C8C2806DADFF8700A0068401CD5
:10081000DFF8681A08606D1CEDE7DFF8600A006811
:10082000792804DB0120DFF8581A086003E0002073
:10083000DFF84C1A0860DFF8A006006800F0EEFF51
:10084000DFF8401A01F090F88246DFF89006407811
:10085000DFF88816C9780818DFF88016C9794018BB
:10086000DFF87816497A401800F0D8FF514600F0BA
:10087000EDFF01F0F7F80022DFF8CC3B00F052FE6C
:1008800001F018F940B2DFF8C41B0860DFF8480631
:10089000006800F0C3FFDFF8EC1901F065F882464C
:1008A000DFF8BC090078DFF8341640184078DFF82C
:1008B000B0190978DFF824268918C97851FA80F030
:1008C000DFF89C190978DFF814268918C97950FADD
:1008D00081F0DFF88C190978DFF800268918497A49
:1008E00050FA81F000F09AFF514600F0AFFF01F09E
:1008F000B9F80022DFF8503B00F014FE01F0DAF8FE
:1009000040B2DFF84C1B0860DFF85009006874281B
:1009100003DB7320DFF844190860DFF84009006842
:10092000002803D50020DFF834190860DFF82C090F
:1009300000680600F6B2732E33DAF6B2305DF6B216
:1009400031194978401ADFF8081B096888421EDB14
:10095000F6B2305DF6B231198978401ADFF8F01A34
:10096000096888421BDBF6B2305DF6B23119C978EE
:10097000401ADFF8DC1A0968884210DBF6B2DFF8AB
:10098000D40A06600120DFF8D01A086009E00020D0
:10099000DFF8C41A08600020DFF8B81A0860761C77
:1009A000C8E7DFF8B80800680F2803DA0F20DFF87F
:1009B000AC180860DFF8A4080068802803DB7F20FB
:1009C000DFF898180860DFF8940800680500EDB2B9
:1009D000102D36DBEDB2285DEDB2291911F8011C9E
:1009E000401ADFF8681A0968884220DBEDB2285DFA
:1009F000EDB2291911F8021C401ADFF8501A0968E3
:100A000088421CDBEDB2285DEDB2291911F8031CF8
:100A1000401ADFF8381A0968884210DBEDB2DFF8B7
:100A20003C0A05600120DFF8381A086009E0002060
:100A3000DFF82C1A08600020DFF8201A08606D1E0D
:100A4000C5E7732080465FFA88F8B8F1100F45DBE0
:100A50005FFA88F818F804005FFA88F818EB0401C8
:100A600011F8011C401ADFF8E419096888422ADBF2
:100A70005FFA88F818F804005FFA88F818EB0401A8
:100A800011F8021C401ADFF8C4190968884222DBF9
:100A90005FFA88F818F804005FFA88F818EB040188
:100AA00011F8031C401ADFF8A4190968884212DB08
:100AB0005FFA88F8DFF8AC09C0F800800120DFF8A1
:100AC000A81908600AE00020DFF89C1908600020DF
:100AD000DFF890190860B8F10108B4E70F200700AB
:100AE000FFB2732F33DAFFB2385DFFB2391949789C
:100AF000401ADFF85C19096888421EDBFFB2385DD6
:100B0000FFB239198978401ADFF844190968884218
:100B10001BDBFFB2385DFFB23919C978401ADFF824
:100B200030190968884210DBFFB2DFF8400907601E
:100B30000120DFF83C19086009E00020DFF83019D7
:100B400008600020DFF8241908607F1CC8E7DFF880
:100B50001009006801280FD1DFF8FC08006801289F
:100B60000AD1DFF8F0080068DFF8F0180968401AC9
:100B7000DFF80019086029E0DFF8E4080068DFF812
:100B8000D8180968084300281CD1DFF8DC08006881
:100B9000012817D1DFF8D8080068012812D1DFF842
:100BA000C4080068DFF8C418096888420ADADFF868
:100BB000BC080068DFF8AC180968401ADFF8B41800
:100BC000086003E00020DFF8AC180860DFF8880850
:100BD0000068012840F01581DFF8840800680128CA
:100BE00040F00F81DFF880080068012840F009819B
:100BF000DFF87C080068012840F00381DFF86C080A
:100C00000068DFF860180968884280F2FA80DFF82F
:100C1000540800685A2880F2F480DFF85008006811
:100C20002728C0F2EE80DFF82C0800680600F6B234
:100C3000642E53DAF6B2305DF6B2311911F8011CA8
:100C4000401ADFF80818096888421CDBF6B2305DEC
:100C5000F6B2311911F8021C401ADFF8F0170968D2
:100C6000884210DBF6B2305DF6B2311911F8031C80
:100C7000401ADFF8D8170968884204DB94480068F6
:100C8000401C93490860F6B2301910F8010CF6B216
:100C9000315D401ADFF8B817096888421CDBF6B2EC
:100CA000301910F8020CF6B2315D401ADFF8A017C7
:100CB0000968884210DBF6B2301910F8030CF6B25E
:100CC000315D401ADFF888170968884204DB8148E3
:100CD0000068401C7F490860761CA8E7DFF87C07A5
:100CE00000680500EDB2242D53DBEDB2285DEDB2B6
:100CF000291911F8011C401ADFF8501709688842B9
:100D00001CDBEDB2285DEDB2291911F8021C401A66
:100D1000DFF838170968884210DBEDB2285DEDB2C4
:100D2000291911F8031C401ADFF8201709688842B6
:100D300004DB67480068401C65490860EDB228196B
:100D400010F8010CEDB2295D401ADFF804170968AC
:100D500088421CDBEDB2281910F8020CEDB2295DB7
:100D6000401ADFF8EC160968884210DBDFF8E0066D
:100D70000068EDB2291911F8031CEDB22A5D891A39
:100D8000884204DB53480068401C524908606D1ECD
:100D9000A8E75048006802280CDB4D48006802288C
:100DA00008DBDFF8D4060068002803D10120DFF853
:100DB000C81608604748006802280CDB44480068F1
:100DC000022808DBDFF8B0060068022803D1012002
:100DD000DFF8A81608603F480068022811DB3C488D
:100DE000006802280DDBDFF890060068032808D1B0
:100DF000DFF8800600681E2803DA0120DFF880167D
:100E00000860DFF880060068DFF850140860DFF83B
:100E10005006006800280FD1DFF83C060068012862
:100E20000AD1DFF830060068DFF85C160968401A5E
:100E3000DFF85816086018E0DFF82406006801287B
:100E40000FD1DFF81406006800280AD1DFF80C067D
:100E50000068DFF8341609680818DFF830160860F3
:100E600003E04020DFF824160860DFF82006006861
:100E7000D0F14000DFF818160860DFF8EC050068D4
:100E800000280FD1DFF8E805006801280AD1DFF853
:100E9000DC050068DFF8F0150968401ADFF8F41582
:100EA000086023E0DFF8C005006801281AD1DFF8E8
:100EB000C0050068002815D1DFF8A8050068DFF834
:100EC000C81509680818DFF8CC1508600EE000BFE7
:100ED000E012FF1FE412FF1F3C14FF1F2813FF1F27
:100EE000A813FF1F4020DFF8AC150860DFF8A40549
:100EF0000068D0F14000DFF8A0150860DFF8600559
:100F00000068002817D1DFF850050068012812D1C9
:100F1000DFF87C05006801280DDBDFF83805006884
:100F2000DFF864150968401ADFF8581508600120D9
:100F3000DFF868150860DFF828050068012817D178
:100F4000DFF814050068002812D1DFF844050068B6
:100F500000280DD5DFF804050068DFF82C150968B6
:100F60000818DFF8201508600120DFF83015086048
:100F7000DFF8EC040068002818D1DFF8DC04006812
:100F8000012813D1DFF80805006800280ED5DFF826
:100F9000C4040068DFF8F0140968401ADFF8E414AC
:100FA00008605FF0FF30DFF8F4140860DFF8B00489
:100FB0000068012818D1DFF8A0040068002813D1C8
:100FC000DFF8CC04006801280EDBDFF8900400682D
:100FD000DFF8B41409680818DFF8A81408605FF097
:100FE000FF30DFF8B8140860DFF874040068DFF839
:100FF00068140968084300281CD1DFF86C040068F5
:10100000012817D1DFF868040068002812D1DFF842
:101010008804006800280DD5DFF848040068DFF870
:10102000681409680818DFF85C1408600120DFF80C
:101030006C140860DFF828040068DFF81C140968E5
:101040000843DFF8241409680843002817D1DFF8A3
:1010500020040068012812D1DFF83C040068012850
:101060000DDBDFF808040068DFF81C140968401A7B
:10107000DFF8101408600120DFF820140860DFF8A2
:10108000E0030068DFF8D0130968084300281DD189
:10109000DFF8D4030068012818D1DFF8D403006812
:1010A000002813D1DFF8F003006801280EDBDFF819
:1010B000B4030068DFF8D01309680818DFF8C41318
:1010C00008605FF0FF30DFF8D4130860DFF89003AA
:1010D0000068DFF8841309680843DFF88C13096897
:1010E0000843002818D1DFF888030068012813D1CD
:1010F000DFF8A403006800280ED5DFF8700300684D
:10110000DFF884130968401ADFF8781308605FF08D
:10111000FF30DFF888130860DFF844030068CE4929
:1011200009680843DFF8401309680843DFF84013F3
:101130000968084300280CD150480068062808DBDD
:1011400046480068DFF83C1308600120DFF84C13C4
:101150000860DFF80C030068BF4909680843DFF83E
:10116000081309680843DFF80813096808430028D2
:101170000BD142480068062807DA4020DFF8041344
:1011800008600120DFF814130860DFF8D40200685B
:1011900001281DD1B0480068012819D1DFF8DC0210
:1011A0000068002814D1DFF8CC02006829280FDB82
:1011B000A8480068DFF8A41209680818022190FB0B
:1011C000F1F0DFF8C01208600120DFF8D0120860EB
:1011D000DFF8A8020068012828D1DFF89002006833
:1011E000DFF8801209680818022190FBF1F0DFF89F
:1011F000B0120860DFF8A8020068402806DBDFF8BC
:101200006C0200680F38DFF87C120860DFF890028B
:101210000068402806DADFF84C0200680F30DFF87B
:10122000641208600120DFF874120860DFF87402AD
:101230000068012808D109480068DFF848120860F2
:101240000120DFF858120860DFF838020068D0F19A
:101250004000DFF854120860BDE8F0871C04FF1F4F
:101260000319FF1F0219FF1FC812FF1F1404FF1FDD
:1012700000C05F40D412FF1F2413FF1F1813FF1F6D
:10128000D012FF1F0000C84238B5DFF81C0200680A
:1012900000F03CFCDFF810120860DFF81002006874
:1012A000D0F14000DFF808120860DFF8F0010068B4
:1012B000DFF8FC1109684843DFF8F8110860DFF82F
:1012C000F801C068DFF8F0110861DFF8EC01806810
:1012D000DFF8E411C860DFF8E0014068DFF8D811FA
:1012E000886073480068744948605F2073490860EB
:1012F00073480068012805D1002072490860002069
:10130000714908605E480068012805D100206D49D8
:10131000086000206C49086063480068062807DA06
:101320005FF07E506949086000206949086006E066
:101330006848664908605FF07F50654908605E480C
:10134000406806215C4A9268520001FB00205A491D
:10135000C96808185849096908180A2190FBF1F072
:101360005D4908604D48006800F058FA574909681F
:1013700000F06CFA04005848006800F04FFA2100B1
:1013800000F064FA0100554800F0C4FB0400434833
:10139000006800F043FA4E49096800F057FA05006A
:1013A0004548406844498968401A00F037FA2900E6
:1013B00000F04CFA0100200000F0ACFB00F0B2FAA3
:1013C000474908804648B0F9000040F63D71884220
:1013D00003DB40F63C70424908804148B0F9000008
:1013E000B0F5166F03DA4FF416603D4908803C48AB
:1013F000B0F900200021012000F04AFD36480068C5
:10140000384908602A480068374908602948006858
:10141000364908602648006832490968401A34494C
:1014200008603348006800F071FB314908603048BB
:101430000068192803DB01201A49086002E0002037
:101440001849086031BD000000001040FC12FF1F69
:101450000013FF1FA812FF1FB012FF1FA412FF1FCF
:10146000AC12FF1FB412FF1FB812FF1FBC12FF1FE8
:10147000C012FF1F2004FF1FF012FF1FF412FF1FF6
:10148000CC12FF1F1804FF1F1004FF1F2C04FF1FA6
:101490001C13FF1F3004FF1F2013FF1FC412FF1F68
:1014A000F812FF1F9812FF1F0413FF1F2404FF1FD1
:1014B0000813FF1FE812FF1F2814FF1F2804FF1F37
:1014C000D012FF1F9C12FF1FA012FF1FD812FF1F78
:1014D000DC12FF1F000070411013FF1F0080454504
:1014E000F818FF1F1413FF1F0C13FF1FEC12FF1F30
:1014F0009412FF1F010040F10980F446404200F0C1
:1015000005F851F000416047010000BF09D0B0FA72
:1015100080F18840C91CC1F58461090501EBD02127
:1015200040057047F0B540F2FF7581EA030C0CF0FE
:10153000004C15EA11541DBF15EA1357AC42AF42D7
:10154000E5E0BC41C1F31301C3F31303801A9941D1
:1015500043F4801304D2641E40004941801859416D
:10156000C90241EA5051B1FBF3F603FB1611A2FB8D
:101570000675D7EBC020A94102D2761E80185941CA
:10158000C90241EA5051B1FBF3FE03FB1E11A2FB5D
:101590000E75D7EBC020A94103D2AEF1010E801821
:1015A0005941890241EA9051760546EA8E2EB1FBF7
:1015B000F3F603FB1611A2FB0675D7EB8020A941B9
:1015C00002D2761E80185941C90241EA50514EEAB2
:1015D000060EB1FBF3F603FB1611A2FB0675D7EB63
:1015E000C020A94102D2761E80185941C90241EAA1
:1015F0005051B1FBF3F703FB1711A2FB0735D3EBF7
:10160000C020A94167F100070CBF004247F0010765
:1016100066F3D5274FEA1E31B80814F5806412DD51
:10162000BD0775F1004250EB0E5051EB045111F51E
:10163000801F5CBF41EA0C01F0BD4CF07F6141F0BE
:10164000E0410020F0BDBD076D0840EA0E5041F4B6
:101650008011D4F10104B4F120060ADAC4F12006A5
:101660000200E04001FA06F3E1401843B24015439E
:101670000EE0342C13DCC6F1200445EA40056D0869
:1016800020FA06F2154321FA06F0A1400D4300218D
:1016900075F1004250F1000051EB0C01F0BD00204B
:1016A0005FEA0C01F0BDCFB992185B41B3FA83F742
:1016B00004BFB2FA82F6BF190B3FB7F120062FBF65
:1016C00002FA06F3BB40C7F1200622FA06F638BF3D
:1016D0003343BA401CB1E419641E33E77F4231F052
:1016E0000041B1FA81F404BFB0FA80F6A4190B3CB2
:1016F000B4F120062FBF00FA06F1A140C4F1200684
:1017000020FA06F638BF3143A0403C1B1AE7AC4232
:101710001ABF05EA1357AF4212E050EA41061CBF58
:1017200052EA4306BFE750EA4107304661461CBF14
:1017300041EA0551F0BD52EA430C08BFC143F0BD78
:1017400000204FF4001616EB410F98BF16EB430F25
:1017500008BF16EB410F24BFC14305E016EB430F52
:101760000CBF61464CEA0551F0BD50F8041B61B155
:1017700050F8042BD30744BFA9F101039A180023A2
:1017800042F8043B091FFAD1EFE770474FEAF17CBA
:10179000BCF1E04C2CBFBCF5001F11E05FEA4C0C23
:1017A00034BFBCF17F5F2EE05FEA9C0C4FEA0C1C5B
:1017B0004FEA3C0CC10071F100414CEB5070704796
:1017C000C90241EA5051C00218BF41F0010141F085
:1017D00000414FEA6C50C0F10900212810D240EAC4
:1017E000CC7CCCF1200C11FA0CF070F10040CCF163
:1017F000200C21FA0CF00CF0004C40EB0C00704770
:101800004FEACC707047490011F5001F04D84FEA29
:10181000CC10FF30C0057047C8177047002840F152
:101820000780F446404200F003F850F00040604763
:101830000AD0B0FA80F18840D1F19D01C9050206B5
:1018400072F1004241EB102070470000FF2212EAC3
:10185000D05C1DBF12EAD153944593422BE09C44C7
:10186000D30780EA01021A4043EA002043EA01213B
:10187000A1FB0030410038BF40007CF17F010BDB51
:10188000FE294ADA5B0842EAC15153EA006373F168
:10189000004C51EB10207047D1F1080CDCF1200115
:1018A0002FDB5B0810FA01F10B4373F1004120FAC2
:1018B0000CF05041704794451CBF02EAD15393424B
:1018C00080EA010202F000421DD0400019D0490018
:1018D00017D05BB9634514D00902B1FA81F399407E
:1018E000BCEB030CC00140F00040C1E70002B0FABD
:1018F00080FC10FA0CF0B3EB0C0CC90141F0004174
:10190000B6E71000704740000AD0490008D010F137
:10191000807F94BF11F1807F02E042F0FF4070476A
:10192000D04370474100090E7F3915D4D1F11F0112
:1019300014D4400007D2C00140F00040C84048BF66
:101940006FF000407047C00140F00040C8404CBFFD
:101950004FF00040404270470020704700424FF077
:10196000004058BFC043704710B5FF2313EAD0545E
:101970001DBF13EAD1529C429A4239E0A41ADA07F9
:1019800080EA0103134042EA012142EA0020421AA0
:101990003CBF641E01EB4202090AB2FBF1FE01FBEF
:1019A0001E221202B2FBF1F001FB10226EF30F2097
:1019B0001202B2FBF1FE4EEA00207F3406DDFE2C5F
:1019C00024DA53EA500050EBC45010BDD4F10204A5
:1019D00001FB1E2240F08071192C1DDC21FA04F05D
:1019E000C4F12004A140114371F10042584110BDDF
:1019F0009C421ABF03EAD1529A420FE080EA010EDC
:101A00000EF00043400004D0490016D143F0FF40DF
:101A100010BD490008BFD343180010BD9C4205D13A
:101A2000D21AF7D001F00041484010BD4A0212BF5F
:101A30000846484000F0004010BD4AB90902B1FA1A
:101A400081F2914044B1A418C00140F000409EE7EB
:101A5000C90141F0004152420002B0FA80F4A040B6
:101A6000141B94E75FF0FF0C1CEAD05114BF6145D2
:101A700006E0C110400721F0E04101F160517047DC
:101A800079B900F0004100020AD0B0FA80FC00FAF7
:101A90000CF001F16051A1EB0C5101EBD02140059C
:101AA000704741020CBF40F4E0016FF000010020DC
:101AB00070470000F446400D40EAC120490006D2BC
:101AC00000F014F8004248BF6FF00040604700F09B
:101AD0000DF84FF0004188428CBF084640426047F5
:101AE000400D40EAC120490080F00D8040F00040E8
:101AF000490DA1F58061491C05D4D1F11F0154BFE6
:101B0000C840C01770474FF000007047002848BF1A
:101B10004042704790EA010F44BF81F0004100F05D
:101B200039BA00BF431A4FF000423EBF5340C01ABB
:101B3000C91800BFD3095FEAD05C13EB400F34BF74
:101B4000B3EB410F40E07CEBD1530CD342EA0121CF
:101B500022D8D1EB402009D3400A28BF5FEA5001C8
:101B600040EBCC507047401A15D04002B0FA80F2DA
:101B7000521C9040400A4FEA3C23B3EB026384BFFF
:101B800000EB730007E040F400001A16DB07C2F117
:101B90000102D04018437047182BFCDC31FA03F2E5
:101BA00002FA03F3591A38BF42F00102D2EB402087
:101BB0003CBF4000ACF1010C5FEACC5CC20572F1A5
:101BC00000414CEB5020704713EB400F0FD24B00FD
:101BD00009D0ACEBD153022B03DB4902172BDDDD1F
:101BE00070479143401A4300D5D10020704713EB52
:101BF000410FD0D36FF000007047000038B50400EB
:101C00000D0064B2002C03D0022C66D049D380E0D2
:101C1000DFF86C03006850F08070DFF86413086030
:101C20006DB2002D0BD0022D15D00ED3042D1ED079
:101C300017D3062D27D020D3072D2AD02FE04FF41D
:101C40008061412000F0E0F92AE04FF44071042067
:101C500000F0DAF924E04FF44071052000F0D4F9E7
:101C60001EE04FF44071062000F0CEF918E04FF46A
:101C70004071072000F0C8F912E04FF48061652040
:101C800000F0C2F90CE04FF48061662000F0BCF96E
:101C900006E04FF48061672000F0B6F900E038E01C
:101CA00037E0DFF8DC02006850F00070DFF8D01297
:101CB00008606DB2002D02D0012D06D00BE04FF46C
:101CC00040710C2000F0A0F906E04FF440710D20A7
:101CD00000F09AF900E01CE01BE0DFF8A8020068C1
:101CE00050F08070DFF89C1208606DB2002D02D0B9
:101CF000012D06D00BE04FF44071322000F084F942
:101D000006E04FF44071332000F07EF900E000E07F
:101D1000FFE731BD2DE9F84F04000D0016001F004C
:101D200064B2002C0ED064B2012C02D064B2022C3A
:101D300002D16DB2022D05DB4FF4C271DFF848020B
:101D400000F0CFF9290049B2200040B2FFF756FF5A
:101D5000DFF8380200684FF47A71484380465FEA42
:101D60001840B0FBF6F08146002082461FFA89F940
:101D700059FA0AF0012802DB1AF1010AF6E75FFAC4
:101D80008AFABAF1080F05DB40F29F11DFF8F8017B
:101D900000F0A7F938FA0AF0B0FBF6F0814664B219
:101DA000002C03D0022C19D00CD322E01FFA89F9A1
:101DB00019F1010000FB07F042F21071B0FBF1F0E5
:101DC000834616E01FFA89F919F1010000FB07F0BC
:101DD00042F21071B0FBF1F083460AE01FFA89F974
:101DE00019F1010000FB07F06421B0FBF1F083461C
:101DF000FFE76DB264B2DFF8980150F8240010EBF1
:101E0000C5006DB264B2DFF8881151F8241011EBEF
:101E1000C501C96831F00401C1606DB264B2DFF878
:101E2000700150F8240010EBC5002821C1605FFA52
:101E30008AFA1AF0070050F0080064B2DFF8501177
:101E400051F8241008601FFA89F964B2DFF84001E4
:101E500050F82400C0F80890002064B2DFF8301178
:101E600051F82410C8646DB264B2DFF8240150F850
:101E7000240010EBC5001FFA8BFBC0F810B0002047
:101E800064B2DFF80C1151F824104860BDE8F18FFE
:101E90002DE9F04104000D0016005FF0000864B267
:101EA000002C0ED064B2012C02D064B2022C02D1FC
:101EB0006DB2022D05DB40F2E311DFF8CC0000F03B
:101EC00010F964B2002C03D0022C17D00BD31EE003
:101ED00042F21170864205D340F2E911DFF8A80002
:101EE00000F0FFF813E042F21170864205D340F291
:101EF000ED11DFF8940000F0F4F808E0652E05D34A
:101F000040F2F111DFF8800000F0EBF8FFE764B277
:101F1000DFF87C0050F8240080688046B8F1000F9C
:101F2000F5D064B2002C03D0022C15D00AD31CE0EB
:101F300018F1010000FB06F042F21071B0FBF1F065
:101F4000070012E018F1010000FB06F042F21071E8
:101F5000B0FBF1F0070008E018F1010000FB06F00B
:101F60006421B0FBF1F00700FFE76DB264B2DFF867
:101F7000200050F8240010EBC5000761BDE8F08197
:101F80003C80044030800440D85D00009818FF1F5A
:101F9000440BFF1F421A3CBF801A89184FF0004CB7
:101FA000C0F3C752FF2A24D0C1F3C75313B3D21AC8
:101FB000D2F1190327DD4CEA01214CFA03F321EA9F
:101FC0000303D140C20D4CEA0020401834BF20EA80
:101FD0000C004CEA5000D20553EA006373EB0C0C82
:101FE00052EB1020420012F1807F38BF7047C00DC5
:101FF000C0057047490212BF9A4200EB5120F8E732
:10200000D2F11703D9D5704710B4294A12684FF49A
:102010000073C0B24409A3401A43254B1A60C0B2F2
:102020004211244B53F82220012310F01F04A34037
:10203000C2F8A030C0B210F01F02C0B243111D4C54
:1020400054F8233043F8221010BC704710B4184ADB
:1020500012684FF40073C0B24409A3401A43144BF2
:102060001A60C0B24211134B53F82220012310F022
:102070001F04A340C2F8A03031F4E061C0B210F0F8
:102080001F02C0B243110B4C54F8233053F82220E6
:1020900012F4E0621143C0B210F01F02C0B243114B
:1020A000044C54F8233043F8221010BC7047000051
:1020B00038800440AC0BFF1FDFF800F0610CFF1FFD
:1020C000DFF800F0910CFF1FBFF34F8F4648006808
:1020D00010F4E0604549084343490860BFF34F8F5F
:1020E000FEE738B504000D00002000F08DF82A004E
:1020F00021003F4800F0C0F8002000F0A2F84FF4A3
:102100007A7000F0E6F8F2E738B504000D0021001F
:1021100049B2042000F000FA200032BD10B50024BE
:10212000042000F013FA042000F046FA002841D100
:10213000002000F069F8042000F03EFA012801D1E7
:1021400001200400002000F07CF82A4800F094F8F8
:102150004FF4FA7000F0BDF8E4B2012CEBD104208A
:1021600000F02AFA0028E6D1042000F025FA002821
:1021700006D1002000F065F8642000F0AAF8F3E72B
:10218000042000F019FA012806D1002000F059F8C7
:10219000322000F09EF8F3E7174800F06DF8FFF7E3
:1021A0008BFF642000F095F80020FFF789FFFFF710
:1021B0008BFFC0E710BD10B510480468012000F087
:1021C00023F8012000F03DF8E4B20F200C4900FB99
:1021D0000412E4B221000B4800F04EF84FF47A707C
:1021E00000F077F8EDE700000CED00E00400FA05E0
:1021F000A45E0000585F0000D85E000004ED00E01F
:102200003C04FF1F745C000010B5040064B2042C91
:1022100007DA0122012164B21648205C00F0E4F9DB
:102220000EE0042004002000441E40B2002807D025
:102230000122012164B20F48205C00F0D5F9F2E7D9
:1022400010BD10B5040064B2042C05DA64B209486C
:10225000205C00F059FA0CE0042004002000441E29
:1022600040B2002805D064B20248205C00F04CFA6D
:10227000F4E710BDE00BFF1F0EB400B582B003A958
:102280000091024600AB0121034878440A3000F077
:1022900079FA06BC5DF810FB9D3C000010B5040007
:1022A000002C15D0B4F1807F03D329210F48FFF70C
:1022B00018FF00200E4908600E48046000200E49F7
:1022C000086005200A49086009480068C003FBD57A
:1022D00010BD10B504002000441E002804D007489B
:1022E0000068FFF7DBFFF6E710BD0000285D000087
:1022F00010E000E014E000E018E000E09018FF1F9C
:102300002DE9F84304000D0064B2002C08D0022C23
:102310002CD018D3042C4FD03BD3052C5FD071E0C8
:10232000DFF81002006850F48060DFF808120860DF
:102330004FF440716620FFF767FE4FF4407167204D
:10234000FFF762FE5EE0DFF8EC01006850F4006029
:10235000DFF8E01108604FF440714320FFF754FEAE
:102360004FF440714420FFF74FFE4BE0DFF8C4010B
:10237000006850F48050DFF8BC1108604FF44071E1
:102380006320FFF741FE4FF440716220FFF73CFEEF
:1023900038E0DFF8A001006850F40050DFF8941135
:1023A00008604FF440718520FFF72EFE4FF4407116
:1023B0008420FFF729FE25E0DFF87C01006850F457
:1023C0008060DFF8741108604FF440714E20FFF711
:1023D0001BFE4FF440714F20FFF716FE12E0DFF8AE
:1023E0005801006850F40060DFF84C1108604FF4A9
:1023F00040718920FFF708FE4FF440718820FFF7F5
:1024000003FEFFE764B2DFF8340150F82400C0781F
:1024100010F0F30064B2DFF8241151F82410C870F2
:1024200064B2DFF8180150F82400807864B2DFF855
:102430000C1151F82410887064B2002C02D064B2E0
:10244000012C07D1DFF8F80000684FF47A71484397
:10245000814606E0DFF8EC0000684FF47A714843EB
:1024600081462801B9FBF0F00600B6B2B6F5005F70
:1024700002DB41F6FF700600B9FBF5F0B6B2B0EB37
:1024800006100700BFB2202F03DBDC212E48FFF728
:1024900028FE64B2294850F82400007810F0E000CB
:1024A0008046B6B2300A10F01F0050EA080064B24D
:1024B000224951F82410087064B2204850F82400D2
:1024C000467064B21D4850F82400807A10F0E00095
:1024D000804617F01F0050EA080064B2174951F80F
:1024E0002410887264B2154850F82400007C50F023
:1024F000880064B2114951F82410087464B20F487E
:1025000050F82400C07850F00C0064B20B4951F828
:102510002410C870BDE8F18340B2084A52F8202068
:1025200012791206F8D540B2044A52F82020D1712F
:10253000704700003480044028800440C00BFF1F17
:102540009018FF1F9818FF1F645D000010B504006D
:1025500064B2082C0DDA0022002164B22148205C0C
:1025600000F042F8032164B21E48205CFFF76EFDC4
:1025700014E0082004002000441E40B200280DD0C2
:102580000022002164B21748205C00F02DF80321DE
:1025900064B21448205CFFF759FDECE710BD10B59C
:1025A000040064B20F48205C00F0CAF8002801D192
:1025B000002000E0012010BD10B50400200040B252
:1025C000FFF7EDFF00280AD10A20FFF782FE200066
:1025D00040B2FFF7E4FF002801D1002000E0012015
:1025E00010BD0000D80BFF1F70B504000D001600D1
:1025F0004FF480712000C0B2FFF706FD6DB2002DD0
:1026000011D1E4B260115D4951F82000E4B26111CA
:102610005A4A52F821104969012214F01F039A40C6
:102620009143416136E0E4B26011544951F8200011
:10263000E4B26111514A52F821104969012214F0A3
:102640001F039A4011434161F6B2002E11D1E4B24A
:1026500060114A4951F820000068012114F01F025E
:1026600091408843E4B26111444A52F82110086055
:1026700010E0E4B26011414951F8200000680121E6
:1026800014F01F0291400843E4B261113B4A52F832
:102690002110086070BD38B504000D00E4B260116F
:1026A000364951F82000406914F01F01C840C007A6
:1026B00003D463213248FFF714FDEDB2002D11D190
:1026C000E4B260112D4951F820000068012114F096
:1026D0001F0291408843E4B26111284A52F8211048
:1026E000086010E0E4B26011244951F8200000684D
:1026F000012114F01F0291400843E4B261111F4A06
:1027000052F82110086031BD10B50400E4B2601128
:102710001A4951F82000406914F01F01C840C00751
:1027200003D47B211648FFF7DCFCE4B260111349A7
:1027300051F82000012114F01F029140C16010BD2A
:1027400010B50400E4B260110C4951F82000406952
:1027500014F01F01C840C00703D58C210848FFF7BB
:10276000C0FCE4B26011054951F82000006914F082
:102770001F01C84010F0010010BD0000500BFF1FEA
:10278000EC5C00002DE9F04FA1B0824602AE0020C3
:1027900017461D46029170620DF144080AE017F8D1
:1027A000011B0298D0470290002800F0D482706A82
:1027B000401C7062387808B9706ACEE22528EED1E4
:1027C0000020F06030617061B061F061306201E062
:1027D00040F0010017F8011F2029F9D023290DD05E
:1027E0002B2904D02D2906D030290AD00CE040F046
:1027F000020080B2EEE740F00400FAE740F0080083
:10280000F7E740F01000F4E72A290DD129680A1DE6
:102810002A600968F162002904D5494240F00400A9
:10282000F16280B27F1C13E00021F1620BE0F16ADB
:102830006FF00043994205D001EB810302EB4301A5
:102840003039F1627F1C3A78A2F130010A29EED3C7
:1028500039782E2903D04FF0FF31B1621EE017F80E
:10286000011F2A2906D129680A1D2A607F1C0968D0
:10287000B16213E00021B1620BE0B16A6FF0004376
:10288000994205D001EB810302EB43013039B1627B
:102890007F1C3A78A2F130010A29EED330860FF678
:1028A000AC20397800F060FD08B117F8010B8DF805
:1028B0003A009DF83A00682802BF397868296220FA
:1028C00005D06C2804BF38786C2803D171208DF8AE
:1028D0003A007F1C11A8B0603978B1F1250023D0EF
:1028E0002038022840F2B980133800F0E1800B381C
:1028F00000F07781401E00F02081401E022840F247
:10290000AC80001F00F01981401F7BD0401E00F0FA
:10291000CF80401E22D0C01E0BD0801E00F0C88089
:10292000C01E00F0C58064E1F068411CF160252103
:1029300069E12868011D29600068B26A7060002A98
:1029400002D500F01DFD07E0002100F035FD002854
:102950001ABF7168401AB06A306156E12868011DDB
:10296000296000210068CDE900014FF03C0E11A85C
:102970007060DDE9000111B908B9B26ACAB1020696
:10298000120FA0EB02123032AEF10103D2B29E461A
:102990003A2AA8BF2732000903F8082040EA01704C
:1029A000090908BF002804D0726811AB73449A4229
:1029B000E5D311A971447160CEF13C00B16A306178
:1029C000884207DA081AB0614FF6EF71308E08407E
:1029D00030861AE1002940F1188196F8301001F094
:1029E0001401102940F01181F16AF268891AB26964
:1029F000891AA1EB000EBEF1010FC0F20681C6F8E4
:102A000018E002E19DF83A00622818D0682806D044
:102A10006A280BD06C2819D0712807D016E02868D6
:102A2000011D29600068716A0180EEE02A68101DAE
:102A300028601268706AC117C2E90001E5E02868E1
:102A4000011D29600068716A0170DEE02868011DBF
:102A500029600068716A0160D7E02868C01D20F015
:102A60000700286000F108022A60D0E90023CDE9C0
:102A70000023002B04D5F068421CF2602D220DE0EB
:102A8000308E820704D5F068421CF2602B2205E0EC
:102A9000C00705D5F068421CF260202200F808202B
:102AA000F06811AA8018706000A800F0DDF9ACE0B1
:102AB0009DF83A006C2808BF2A6811D0712808BF19
:102AC0002A6802D02A686A280AD1D21D22F0070299
:102AD0002A60144604F108022A60D4E9002303E0C6
:102AE000131D2B6000231268CDE90023682808BF5E
:102AF00092B207D0622808BFD2B203D0742818BFA0
:102B00007A2802D10023CDE9002396F8300000078F
:102B10005FD5DDE90023002B08BF002A59D041F022
:102B20002000782855D1F068302200F80820401C99
:102B3000421CF26000F808104BE09DF83A00622851
:102B40000CD0682810D06A281AD06C2823D071289D
:102B500016D074281FD07A280CD01CE02868021DDB
:102B60002A6090F900201AE02868021D2A60B0F956
:102B7000002014E02868021D2A60002302680FE08C
:102B80002868C01D20F00700286000F108022A60B4
:102B9000D0E9002304E02868021D2A600268D317E8
:102BA000CDE90023002B04DAF068421CF2602D22EC
:102BB0000DE0308E820704D5F068421CF2602B22B3
:102BC00005E0C00705D5F068421CF260202200F83D
:102BD0000820F06811AA8018706000A800F0C0F802
:102BE00013E0F068411CF16029680A1D2A60096839
:102BF00009E0F068421CF260252200F8082021B1AB
:102C0000F068421CF26000F80810F06AF168401A9F
:102C1000B169401A3169401AF169401A7169401A64
:102C2000316AA0EB010996F830007F1C400710D4F0
:102C300020208DF84000002409E0012310AA00A9FB
:102C4000504600F06BFB002840F08580641C4C452A
:102C5000F3DBF4680DF1440B0AE01BF8011B02984A
:102C6000D0470290002876D0706A401C7062641EC3
:102C7000002CF2D130208DF840004FF0000BB469E9
:102C800009E0012310AA00A9504600F047FB0028E4
:102C900061D10BF1010BA345F3DB3469D6F804B025
:102CA0000AE01BF8011B0298D0470290002852D07E
:102CB000706A401C7062641E002CF2D130208DF8C6
:102CC00040004FF0000BF46909E0012310AA00A9AD
:102CD000504600F023FB00283DD10BF1010BA3452A
:102CE000F3DB30697168746900EB010B09E01BF8D4
:102CF000011B0298D047029068B3706A401C706252
:102D0000641E002CF3D130208DF840004FF0000BF2
:102D1000346A08E0012310AA00A9504600F0FEFA28
:102D2000C8B90BF1010BA345F4DB96F8300040075E
:102D30007FF540AD20208DF84000002400E0641CA9
:102D40004C45BFF637AD012310AA00A9504600F04C
:102D5000E5FA0028F3D04FF0FF3021B0BDE8F08F46
:102D60002DE9FA4E05460A462F696F2A08BF082446
:102D700005D041F02000782814BF0A241024D5E99A
:102D800000013C2681468B46642A18BF692A05D17A
:102D9000002903DAD9F100096BEB4B0BBBF1000FF3
:102DA00008BFB9F1000F0CD1286B50B9082C36D1EF
:102DB00095F83800000732D530203B2687F83B00D5
:102DC0002DE0E31748465946224600F021FBA4FBBC
:102DD0000023A9EB02023032A6F1010AD2B2564614
:102DE0003A2A03DB9DF80030513B9A180AF8072075
:102DF00081465FEA010B08BFB9F1000F03D0E86814
:102E0000F1198842DDD3082C09D195F83800000764
:102E100005D5F05D302802D0761E3020F055C6F181
:102E20003C00A861F119E960296B884208DA081AA8
:102E300028624FF6EF71288F08402887BDE8F38E8F
:102E400000290ED595F8381001F01401102908D189
:102E5000696B6A69891A2A6A891A081A0128A8BF3F
:102E60002862BDE8F38E00002DE9F34F8BB0D0E966
:102E70000089006B01AF002848BF062005D404BFBD
:102E800041F02000672802D101200B99086340F22D
:102E9000FF720B984168C1F30A50904220D1080399
:102EA00002BF0B98006800280AD10B9903208861A3
:102EB0009DF8300061381A2858D30FF2A44109E078
:102EC0000B99032088619DF8300061381A284AD395
:102ED0000FF284410B98C068032200F011FB00E15F
:102EE000012807DA0B9800F046FB012802DB0023DB
:102EF0000026EDE00B9A526840F2FE3161F31E525B
:102F00000B994A6040F2FE31461A4046494600227B
:102F1000002300F051FB38BF89F0004936B247F278
:102F2000975070434949DFF828B190FBF1F636B26B
:102F3000C6F107079246012F1BDBF80707D552465B
:102F40005B464046494600F04FFB804689467F106D
:102F50005046594652465B4600F046FB82468B4639
:102F6000002FEAD126E00FF2EC31B3E70FF2EC319B
:102F7000B0E77F420024374D12E0F80707D55246EC
:102F80005B462046294600F02FFB04460D467F1085
:102F90005046594652465B4600F026FB82468B4619
:102FA000002FEAD14046494622462B46FEF7BAFAA0
:102FB000804689469DF8300040F02005662D0CBF04
:102FC00006F10A0006200B99096B4718142FA8BFB9
:102FD000132730208DF804000DF10504DFF878B0D8
:102FE000012F3BDB40464946FEF77AFD014604F1DE
:102FF000080204234FF00A0CB1FBFCFC0CEB8C0420
:10300000A1EB4401303102F8011D0A21BCFBF1FEA5
:103010000EEB8E04ACEB44043034714602F8014DE3
:103020005B1EE7D1083F02F10804012FD8DBFEF751
:103030006BFA02460B464046494600F0A7FB0022C9
:103040005B4600F0D1FA80468946CBE7A0860100B6
:10305000000024400000F03F84D797410DF10500A7
:10306000201A0DF1050702E0401E761E7F1C3978FC
:103070003029F9D0662D02D136B2711C03E0652DDE
:103080000CBF012100210B9A126B8B181BB29842C6
:10309000B8BF03461BB219001AD4814204DAC85DD6
:1030A0003528A8BF392000DA3020CA19521E00E0A6
:1030B0005B1E12F80159491E8542F9D0392802D108
:1030C000C85D401CC855002902D57F1E5B1C761CBC
:1030D00036B29DF830100B9800961BB23A4600F0BD
:1030E00003F80DB0BDE8F08F2DE9F04786B0064635
:1030F0008A4690461D4600F026FC406A376B90F8E1
:103100000090012D02DA01250FF258284AF0200024
:10311000BDF93840662808BF641C13D0672840F00A
:10312000878014F1040F72DBBC4270DA96F8380025
:10313000641C000702D4BD42B8BF2F4624B23F1B17
:1031400048BF0027F068B16924B2012C21DA30238E
:103150004A1C0B54012F03DA96F83810090702D5E0
:1031600002F80090521CB261E742B8BF7C4224B220
:103170006142E7197162AF42B8BF3D462DB2F561B9
:103180002A46B3694146181800F0BAF9781BB062B4
:10319000ADE00818A54216DA2A46414600F0B0F91B
:1031A000B1696918B161601B7062012F03DA96F88A
:1031B0003800000705D5F06801F80090F069401C60
:1031C000F061B76293E02246414600F099F9B06998
:1031D00020182D1B012F03DA96F83810090703D5A4
:1031E000F16800F80190401C2DB2B061AF42B8BF49
:1031F0003D46F3682DB22A4604EB0801C01800F0E2
:103200007FF9B0692818B061781B70626FE0BD4229
:1032100004DA96F83810090758BF2F467F1E48BFBA
:103220000027BAF1670F0CBF4FF0650A4FF0450A4F
:10323000B169F06818F8013B0B544A1C012F05DAFC
:1032400096F83810090758BFB26115D502F80090FA
:10325000531CB361012F0FDB6D1E2DB2AF42B8BFFF
:103260003D462DB22A464146181800F049F9B0698A
:103270002818B061781B7062B069F16800EB010832
:10328000200008F801AB03D42B2008F8010B03E061
:103290002D2108F8011B6442002502AF08E00A2234
:1032A00000A800F069FB019807F8010B6D1C009C59
:1032B00021B20129F3DA022D06DA4AF0200065284E
:1032C00004BF302008F8010B4DB9302008F8010B7D
:1032D00007E06D1E02A8285C303008F8010B012DB4
:1032E000F7DAB069F1684018A8EB0000F06196F8D1
:1032F000380000F0140010280DD17069B169081869
:10330000716A0818F1690818B16A0818716B884267
:10331000BCBF081A306206B0BDE8F087F8B50446B5
:103320000D4616461F46002004E0E86A401CE8628D
:103330007F1E002047B116F8011BA868A047A860AF
:103340000028F2D14FF0FF30F2BD0000686A6C74C3
:103350007A4C00006E616E004E414E00696E660050
:10336000494E4600300000000278C9B28A421AB1C4
:103370001CBF10F8012FF9E718BF002070470000AC
:1033800000F10103810704D010F8011B89B1810706
:10339000FAD10268B2F10131914311F0803F04BFCC
:1033A00050F8042FF6E710F8011B11B110F8011BBB
:1033B000FBE7C01A70470000C9B2830706D0521E4F
:1033C00022D310F8013B9942F7D11FE0083A13D3FA
:1033D00002F1040241EA012141EA014150F8043BB3
:1033E000121F21BF4B40A3F1013C2CEA030C1CF03F
:1033F000803FF3D0C9B2001F083210F8013B521EC3
:1034000028BF91EA030FF8D818BF0120401E70476B
:103410001B4213D1094236D12AB18446B0FBF2F0E7
:1034200002FB10C2704700F0AFBAFCD300220023A9
:1034300070470B000200002100207047904271EBA2
:10344000030CF6D370B5B1FA81F4B3FA83F52C1BF3
:10345000A340C4F1200532FA05F63343A2405FF0E1
:103460000046E64002E05B085FEA3202841A71EB34
:10347000030524BF204629467641F4D302000B0001
:103480003000002170BD012ACFD970B5140C20D0B6
:10349000B1FA81F4B2FA82F5C4F120046419B4F1EE
:1034A0002006D6D3B2405FF00044F440002502E08D
:1034B00052085FEA3303C61A71EB020E24BF30468E
:1034C000714664416D41F3D302000B0020002900D6
:1034D00070BD0C46B1FBF2F102FB11452D0445EA2B
:1034E0001045B5FBF2F402FB145580B240EA0545E5
:1034F000B5FBF2F002FB105240EA044070BD000040
:1035000062B38B0708D0521E11F8013B00F8013B53
:1035100000F024808B07F6D1830740F0208000BFA5
:10352000103A07D330B4B1E83810103AA0E8381098
:10353000F9D230BC530724BFB1E80810A0E8081046
:1035400044BF51F8043B40F8043BD20724BF31F894
:10355000022B20F8022B44BF0B7803707047083A07
:1035600007D3B1E80810083A40F8043B40F804CB10
:10357000F7D25307E4E730B4436803F00042012177
:103580001B031B0B436004BF0368002B08D10DE035
:103590000368DD0F45EA440444605B000360491E94
:1035A0004468E302F4D523031B0B436043681A43CA
:1035B0004260084630BC70474FF4001C1CEB410FC2
:1035C00094BF1CEB430F09E041EA030C50EA4C0C9A
:1035D00052EA0C0C03D2994208BF9042704714BFC4
:1035E0008B42824270470000B0B581EA030C0CF0B8
:1035F000004C40F2FF7515EA11541DBF15EA135730
:10360000AC42AF4239E0E41923EA455343F4801356
:10361000C90241F0004141EA505EC7021100A7FB18
:10362000020200284FF00000EEFB01204FF00001E5
:10363000E3FB072118BF42F0010240180021494175
:10364000E3FB0E01A4F580640F0302D25200404157
:10365000494154F101046CDD470872F1004250F118
:10366000000051EB0451A1F580115CBF41EA0C014F
:10367000B0BD4CEA05510020B0BD05EA1357AC427D
:1036800014BFAF4241E050EA410E1CBF52EA430E64
:1036900002E061460020B0BD24423C441BD15FEAF9
:1036A000070EF6D0090302BF01460020AEF1140E4A
:1036B000B1FA81F7AEEB070401FA07FE0C37C7F148
:1036C000200100FA07F7C8404EEA000E23EA4553EE
:1036D00043F48013A2E733F00043B3FA83F704BF47
:1036E000B2FA82FE77440B3FE41BB7F1200E2FBFE6
:1036F00002FA0EF3BB40C7F1200E22FA0EFE38BFCD
:1037000043EA0E03BA40641C82E750EA410E14BF3C
:1037100052EA430E6FF000014FF4001717EB430F0E
:103720008ABF194617EB410FB5E74CEA0551002057
:10373000B0BDD4F10104B4F120070FDAC4F12007C1
:10374000520828BF42F0010210FA07F501FA07F704
:10375000E1BF2A43E0403843E1400FE0352C98DCDC
:10376000C7F1200452EA400220FA07F218BF42F0E3
:10377000010231FA07F0A1400A43002172F1004230
:1037800050F1000051EB0C01B0BD000070B44FF0DF
:10379000004591EA030F44BF6B4000F0F7B800BF4B
:1037A000841A71EB030604D26E40001BB14112195A
:1037B00073414FF4001C1CEB410F34BF7CEB4306FC
:1037C00084E00C0DA4EB1356362E7DDC012E43DC79
:1037D00045EAC32343EA525312BFD20292025B0866
:1037E000240545EAC12141EA5051D2EBC02099415C
:1037F00025D407D1B0FA80F610FA06F164D0002083
:10380000203608E0B1FA81F6B140C6F1200220FA74
:1038100002F21143B0404FEAF474B4EB465434F072
:1038200001064FEA74040AD8D6F50016760D04F0A6
:103830000044F04061FA06F25040F1404840C00AAE
:1038400040EA415021F0004128BF5FEA500550F1A5
:10385000000044EBD12137E045EAC323DB0A45EA07
:10386000C121C90AB6F120050EDD42EA0242120C5E
:10387000C5F1200603FA06F6EB4042EA06056D4262
:10388000984161F100010DE062FA06F5F240554001
:1038900063FA06FC82EA0C02F3405A406D42904102
:1038A00061EB030111F4801F05D1641E620502D093
:1038B0006D004041494121F48011430875F10043F6
:1038C00050F1000041EB045170BC70471CEB410FFC
:1038D00015D223F0004352EA43060BD04FEA4C0CBA
:1038E000BCEB410F04D80C0D661E342EB7DDEBE7A0
:1038F000801A994150EA410608BF0021E4E708BF59
:103900001CEB430F28BF6FF00001DDE780B51348C3
:1039100000F0A6F80FF24801016041608160C160CB
:103920000161416181610FF23C0242628162C162C8
:10393000016341630FF2300282630FF23402C2630B
:103940000164416401BD10B5044800F089F80446E3
:10395000206808B9FFF7DAFF204610BD0819FF1FDD
:10396000000000002E00000066616C73650000001E
:10397000747275650000000091FBF2F303FB1211F5
:10398000C0E900317047000070470000841A71EBF5
:10399000030603D2001BB141121973414FF4001CFE
:1039A0001CEB410F34BF7CEB430443E00C0DA4EB54
:1039B0001356352E50DC45EAC323DB0A45EAC12104
:1039C000C912B6F120050DDD63FA05F6EB4086EA73
:1039D0000305124218BF45F00105C01851F100015E
:1039E0000CD213E062FA06F5F2405540F3415A401A
:1039F000B340F3405A408018594107D349085FEA61
:103A000030005FEA350528BF45F0010501F580115A
:103A1000420875F1004250F1000041EB045170BCC6
:103A20004FF4001C1CEB410F38BF70470020090DFC
:103A3000090570471CEB410F10D252EA43060BD028
:103A4000BCEB410F05D80C0DAB43661E342EB5DD23
:103A500002E0AB438018594170BC704770BC70479E
:103A600070470000170000005A00000040000000EE
:103A7000400000002D000000400000005F0000003A
:103A8000400000004000000000B0034000B00B40C8
:103A90000000000000000000000000000000000026
:103AA00000000000000000000000000000004E6F59
:103AB0006E4D61736B61626C65000000004861725D
:103AC000644661756C740000000000004D656D4D2A
:103AD000616E6167656D656E740000427573466165
:103AE000756C740000000000000055736167654646
:103AF00061756C7400000000000000000000000010
:103B000000000000000000000000000000000000B5
:103B100000000000000000000000000000000000A5
:103B20000000000000000000000000000000000095
:103B30000000000000535643616C6C000000000060
:103B40000000000044656275674D6F6E69746F72A6
:103B50000000000000000000000000000000000065
:103B6000000050656E645356000000000000000025
:103B7000005379735469636B00000000000000007B
:103B8000444D4130000000000000000000000044EF
:103B90004D41310000000000000000000000444DD5
:103BA00041320000000000000000000000444D41D0
:103BB000330000000000000000000000444D4134CC
:103BC0000000000000000000000000444D413500EE
:103BD00000000000000000000000444D41360000DD
:103BE000000000000000000000444D4137000000CC
:103BF0000000000000000000444D413800000000BB
:103C000000000000000000444D41390000000000A9
:103C1000000000000000444D413130000000000071
:103C20000000000000444D41313100000000000060
:103C300000000000444D413132000000000000004F
:103C4000000000444D41313300000000000000003E
:103C50000000444D4131340000000000000000002D
:103C600000444D413135000000000000000000001C
:103C7000444D415F4572726F720000000000004DBC
:103C8000434D00000000000000000000000046540A
:103C9000464C00000000000000000000005265617A
:103CA000645F436F6C6C6973696F6E004C56445F60
:103CB0004C565700000000000000004C4C5700001C
:103CC0000000000000000000000057617463686499
:103CD0006F6700000000000000524E470000000027
:103CE00000000000000000004932433000000000E6
:103CF00000000000000000493243310000000000D5
:103D00000000000000005350493000000000000097
:103D10000000000000535049310000000000000086
:103D20000000000053504932000000000000000075
:103D300000000043414E305F4F525F4D425F62755D
:103D4000660043414E305F4275735F4F6666000008
:103D50000043414E305F4572726F720000000000F8
:103D600043414E305F54785F5761726E696E6743AE
:103D7000414E305F52785F5761726E696E674341A2
:103D80004E305F57616B655F557000000052657380
:103D90006572766564353100000000005265736518
:103DA000727665643532000000000043414E315F99
:103DB0004F525F4D425F6275660043414E315F4234
:103DC00075735F4F666600000043414E315F457278
:103DD000726F72000000000043414E315F54785F03
:103DE0005761726E696E6743414E315F52785F571B
:103DF00061726E696E6743414E315F57616B655FFB
:103E0000557000000052657365727665643539003F
:103E100000000000526573657276656436300000FC
:103E200000000055415254305F52585F5458000012
:103E3000000055415254305F4552520000000000CE
:103E40000055415254315F52585F545800000000F1
:103E500055415254315F4552520000000000005558
:103E6000415254325F52585F54580000000055418F
:103E70005254325F4552520000000000005541523A
:103E800054335F52585F545800000000554152545B
:103E9000335F455252000000000000554152543437
:103EA0005F52585F54580000000055415254345F2F
:103EB00045525200000000000055415254355F52F7
:103EC000585F54580000000055415254355F455228
:103ED0005200000000000041444330000000000098
:103EE00000000000000041444331000000000000D9
:103EF0000000000000434D503000000000000000B2
:103F000000000000434D50310000000000000000A0
:103F1000000000434D50320000000000000000008F
:103F2000000046544D30000000000000000000007A
:103F30000046544D31000000000000000000000069
:103F400046544D3200000000000000000000004315
:103F50004D5400000000000000000000000052541A
:103F600043000000000000000000000000526573E4
:103F700065727665643833000000000050495430A3
:103F80000000000000000000000000504954310013
:103F90000000000000000000000050495432000002
:103FA00000000000000000000050495433000000F1
:103FB00000000000000000005044423000000000FB
:103FC00000000000000000555342300000000000D7
:103FD000000000000000555342444344000000002C
:103FE0000000000000454E45545F313538385F54BD
:103FF000696D6572454E45545F5472616E736D69AB
:10400000740000454E45545F5265636569766500EE
:104010000000454E45545F4572726F72000000000B
:104020000049325330000000000000000000000092
:10403000534448430000000000000000000000441A
:104040004143300000000000000000000000444137
:1040500043310000000000000000000000545349FC
:104060003000000000000000000000004D43470049
:1040700000000000000000000000004C5054696D7A
:1040800065720000000000000000526573657276E2
:10409000656431303200000000504F52544100003E
:1040A0000000000000000000504F52544200000089
:1040B00000000000000000504F5254430000000078
:1040C000000000000000504F525444000000000067
:1040D0000000000000504F52544500000000000056
:1040E00000000000526573657276656431303800F7
:1040F00000000052657365727665643130390000E6
:1041000000005265736572766564313130000000DD
:1041100000526573657276656431313100000000CC
:104120005265736572766564313132000000005269
:104130006573657276656431313300000000526545
:104140007365727665643131340000000052657326
:104150006572766564313135000000005265736523
:104160007276656431313600000000526573657205
:1041700076656431313700000000526573657276F0
:1041800065643131380000000052657365727665F0
:10419000643131390000000000800340009003408A
:1041A00000800B4000F00F4040F00F4080F00F40C7
:1041B000C0F00F4000F10F40F0000A1D3000180061
:1041C00032001801600018186400181A6E00181FD9
:1041D000780013187D00131A8200131C8C000E1235
:1041E00096000E15A0000E18AA000E1BB4000E1E9D
:1041F000C8000C1CE1000B1EFA000A1F0001090890
:104200000090044000A0044000B0044000C00440FE
:1042100000D0044000A0064000B0064000C00640A8
:1042200000D0064000A00E4000B00E406A6E6B6CDD
:10423000676D4E4F343536370E11210046848A00A3
:1042400049858C0002040101A818FF1FF818FF1F00
:10425000A818FF1FA818FF1FA818FF1F2D0CFF1F6D
:10426000140CFF1F00000000000000000000000010
:10427000000000000000000000000000000000003E
:10428000000000000821DFF82023126852F4002209
:10429000DFF814331A6000BFDFF80C23126832F421
:1042A0008032DFF804331A6000BF0A00511ED2B218
:1042B000002A25D0020608D5DFF8EC22126852F455
:1042C0000032DFF8E4321A6007E0DFF8DC2212681F
:1042D00032F40032DFF8D0321A60DFF8CC221268F4
:1042E00052F48032DFF8C0321A6000BFDFF8B82223
:1042F000126832F48032DFF8B0321A604000D4E73E
:10430000704700000821DFF8A022126832F4002272
:10431000DFF894321A60DFF89022126832F48032AB
:10432000DFF884321A600A00511ED2B2002A25D06A
:10433000020608D5DFF87022126852F40032DFF866
:1043400068321A6007E0DFF86022126832F4003247
:10435000DFF854321A60DFF85022126852F48032CB
:10436000DFF844321A6000BFDFF83C22126832F4F2
:104370008032DFF834321A604000D4E7704738B535
:1043800004000D00B5F15000C0B2FFF7BBFFE4B26E
:10439000200950F01000C0B2FFF7B4FF14F00F0076
:1043A000FFF7B0FF31BD70B5040000200500EDB28D
:1043B000082D17DAB5F15000C0B2FFF7A3FF0120B6
:1043C000FFF7A0FF1020FFF79DFF00200600F6B2C8
:1043D000802E05DA2000C0B2FFF754FF761CF6E706
:1043E0006D1CE4E770BD80B2002809D043F226427C
:1043F00011000A00511E92B2002AFAD1401EF2E7C3
:10440000704780B54FF48070DFF8A01108604FF45A
:104410008070DFF89C1108604FF48070DFF8941111
:1044200008604FF48070DFF8901108605FF470202E
:10443000DFF888110860DFF87001006850F4803000
:10444000DFF864110860DFF86001006830F4802054
:10445000DFF8541108603220FFF7C5FFDFF848018C
:10446000006850F48020DFF840110860AE20FFF7AC
:1044700049FF0020FFF746FF1020FFF743FF4020D1
:10448000FFF740FF8120FFF73DFFCF20FFF73AFF06
:10449000A120FFF737FFC820FFF734FFA620FFF762
:1044A00031FFA820FFF72EFF3F20FFF72BFFD3207F
:1044B000FFF728FF0020FFF725FFD520FFF722FF99
:1044C0008020FFF71FFFD920FFF71CFFF120FFF727
:1044D00019FFDA20FFF716FF1220FFF713FFDB208A
:1044E000FFF710FF4020FFF70DFF2020FFF70AFF26
:1044F0000220FFF707FF8D20FFF704FF1420FFF7CE
:1045000001FFA420FFF7FEFEA620FFF7FBFEAF2071
:10451000FFF7F8FE0020FFF746FF00210020FFF71D
:104520002EFF01BD38B500200400E4B2082C1CDACF
:10453000B4F15000C0B2FFF7E5FE0020FFF7E2FE45
:104540001020FFF7DFFE00200500EDB2802D0ADA13
:10455000E4B2EDB2DFF8680010EBC500205CFFF7B5
:1045600091FE6D1CF1E7641CDFE731BDF8B5040076
:104570000D0016002900C9B22000C0B2FFF7FFFEEF
:10458000203E00200700FFB2062F0ADAFFB2B6B2C3
:1045900006200C4900FB0610385CFFF773FE7F1CF9
:1045A000F1E7F1BD0000000080F00F4040B0044092
:1045B00044B0044048B004404CB0044094F00F4074
:1045C0004014FF1F8C52000070B504000D0016004F
:1045D00036B2002E41D55FF0FF3016FB00F62D22DB
:1045E0002900C9B22000C0B2FFF7C0FF36B24FF4B5
:1045F0007A7096FBF0F100FB1160642190FBF1F002
:1046000010F1300292B22900C9B2A01DC0B2FFF76A
:10461000ADFF36B2642096FBF0F100FB11600A2179
:1046200090FBF1F010F1300292B22900C9B214F1FE
:104630000C00C0B2FFF79AFF36B20A2096FBF0F1E9
:1046400000FB116010F1300292B22900C9B214F1DE
:104650001200C0B2FFF78AFF3CE02B222900C9B24A
:104660002000C0B2FFF782FF36B24FF47A7096FB9B
:10467000F0F100FB1160642190FBF1F010F13002C9
:1046800092B22900C9B2A01DC0B2FFF76FFF36B2C7
:10469000642096FBF0F100FB11600A2190FBF1F021
:1046A00010F1300292B22900C9B214F10C00C0B26C
:1046B000FFF75CFF36B20A2096FBF0F100FB1160B9
:1046C00010F1300292B22900C9B214F11200C0B246
:1046D000FFF74CFF70BD0000DFF800F0A90DFF1FD1
:1046E00040B2DFF8A81331F8201040B20128C0F220
:1046F000738140B2112880F26F810022DFF890337D
:104700001A7089B25B2904DA0022DFF884335A7008
:1047100080E089B2B52904DA0122DFF874335A70D7
:1047200078E089B2B1F5877F04DC0222DFF86033DC
:104730005A706FE089B2B1F5B47F04DC0322DFF870
:1047400050335A7066E089B2B1F5E17F04DC04228F
:10475000DFF83C335A705DE089B2B1F5077F04DCC5
:104760000522DFF82C335A7054E089B240F27722E8
:10477000914204DA0622DFF818335A704AE089B20F
:10478000B1F5347F04DC0722DFF804335A7041E0CE
:1047900089B240F22B32914204DA0822DFF8F0327B
:1047A0005A7037E089B2B1F5617F04DC0922DFF885
:1047B000E0325A702EE089B240F2DF32914203DAE1
:1047C0000A22B34B5A7025E089B2B1F5876F03DC3A
:1047D0000B22AF4B5A701DE089B240F293429142D6
:1047E00003DA0C22AA4B5A7014E089B240F2ED426F
:1047F000914203DA0D22A64B5A700BE089B240F2C7
:104800004752914203DA0E22A14B5A7002E00F2266
:104810009F4B5A7089B21A2903DA00229C4B9A7076
:1048200069E089B2332903DA0122994B9A7062E078
:1048300089B24C2903DA0222954B9A705BE089B267
:10484000652903DA0322924B9A7054E089B27E29DB
:1048500003DA04228E4B9A704DE089B2972903DA6D
:1048600005228B4B9A7046E089B2B02903DA062202
:10487000874B9A703FE089B2C92903DA0722844B3B
:104880009A7038E089B2E22903DA0822804B9A70E4
:1048900031E089B2FB2903DA09227D4B9A702AE0C4
:1048A00089B2B1F58A7F03DA0A22794B9A7022E045
:1048B00089B2B1F5967F03DC0B22754B9A701AE032
:1048C00089B2B1F5A37F03DA0C22714B9A7012E022
:1048D00089B2B1F5AF7F03DC0D226D4B9A700AE00F
:1048E00089B2B1F5BC7F03DA0E22694B9A7002E0FF
:1048F0000F22674B9A7089B21A2903DA0022644B9F
:10490000DA7069E089B2332903DA0122604BDA7088
:1049100062E089B24C2903DA02225D4BDA705BE077
:1049200089B2652903DA0322594BDA7054E089B25F
:104930007E2903DA0422564BDA704DE089B29729BA
:1049400003DA0522524BDA7046E089B2B02903DA65
:1049500006224F4BDA703FE089B2C92903DA0722F9
:104960004B4BDA7038E089B2E22903DA0822484B6F
:10497000DA7031E089B2FB2903DA0922444BDA709C
:104980002AE089B2B1F58A7F03DA0A22404BDA7055
:1049900022E089B2B1F5967F03DC0B223C4BDA7042
:1049A0001AE089B2B1F5A37F03DA0C22384BDA7032
:1049B00012E089B2B1F5AF7F03DC0D22344BDA701F
:1049C0000AE089B2B1F5BC7F03DA0E22304BDA700F
:1049D00002E00F222E4BDA70704710B50400200061
:1049E00040B2FFF77DFE2B48007810F0FD0029490A
:1049F00008702848007850F0100026490870B82048
:104A00002549087025480078C006FBD42348007863
:104A1000C0F38100C0B20228F8D11D48C3781C48F9
:104A200082781B4841781A480078FFF755FE64B237
:104A3000164810EB8400807810F01F0018490870A9
:104A400064B2124810EB8400C07810F01F0050F0E0
:104A5000400014490870114800788006FBD50F48C3
:104A600000784006FBD50C48007810F03F000A495A
:104A700008700A480078C0F38100C0B20328F8D15A
:104A800064B2024830F82400C0B210BD640BFF1FAE
:104A9000A80BFF1F014006400040064006400640AC
:104AA000044006400540064038B5040064B2651174
:104AB000EDB2002D02D0012D11D021E0A3480068F5
:104AC00050F00060A1490860A148006830F09000F3
:104AD0009F4908609E4800689D49086014E09D4811
:104AE000006850F000609B4908609948006830F405
:104AF000104097490860964800689549086003E0AF
:104B000033219548FDF7EDFA64B22000002800F04B
:104B10008980012800F08680032800F0838008281F
:104B20004ED0092851D00A2854D00B2857D00C2831
:104B30005AD00D285DD00E2860D00F2863D01028E1
:104B400070D0112864D0122867D013286AD0142896
:104B500068D01A2866D01D2864D01E2862D020286C
:104B600061D021285FD023285DD024285CD025285F
:104B70005FD0262862D0272865D0282868D0292829
:104B80006BD02A286ED02B2871D02C2874D02D28D9
:104B900077D02E287AD02F287DD0302800F085803D
:104BA00031287DD0322800F0808033287DD0342811
:104BB0007BD03A2879D03D2877D03E2875D075E053
:104BC00000212020FDF720FA74E000212120FDF7CC
:104BD0001BFA6FE000210720FDF716FA6AE00021BA
:104BE0000820FDF711FA65E000212220FDF70CFAFC
:104BF00060E000212320FDF707FA5BE00021402060
:104C0000FDF702FA56E000214120FDF7FDF951E0E1
:104C100000219820FDF7F8F94CE000219920FDF7DC
:104C2000F3F947E046E045E000218020FDF7ECF98C
:104C300040E000218120FDF7E7F93BE000218220E0
:104C4000FDF7E2F936E000218320FDF7DDF931E0E0
:104C500000212020FDF7D8F92CE000212120FDF7CC
:104C6000D3F927E000212420FDF7CEF922E000212E
:104C70002520FDF7C9F91DE000212620FDF7C4F924
:104C800018E000212720FDF7BFF913E000212A20BA
:104C9000FDF7BAF90EE000212B20FDF7B5F909E088
:104CA00000211120FDF7B0F904E003E09A212A4821
:104CB000FDF717FA31BDF8B504000D0064B26611B6
:104CC0000027290049B2200040B200F01CF876B25B
:104CD000224850F8260000680006F8D576B21F4832
:104CE00050F826000069070076B21C4850F82600EC
:104CF000006830F0800076B2184951F8261008603C
:104D0000380080B2F2BD30B440B2421110F01F033F
:104D100049B28C0014F00C0454F0500452B20F4D00
:104D200055F82250AC60042452B20C4D55F8225074
:104D3000EC60DBB213F01F0454F0400452B2074D94
:104D400055F822502C6030BC704700003C80044075
:104D50001880044030800440A05D00003404FF1F30
:104D6000012110F01F02914040B24209DFF82832C1
:104D700043F8221070472DE9F84305000E00170094
:104D800098465FF000095FFA89F9B9F1000F01D187
:104D900001240EE05FFA89F9B9F1010F01D1022473
:104DA00007E05FFA89F9B9F1020F01D1042400E0AC
:104DB0001024B7F5004F02D347F6FF7007006DB21D
:104DC0007C4840F825707548006850F0020073492F
:104DD00008607348006850F0020071490860764826
:104DE0006DB269016F4A885073486DB2690101F173
:104DF000804111F51041086100206DB2690101F197
:104E0000804111F51041888000206DB2690101F1E7
:104E1000804111F5104188825FFA89F95FEA092023
:104E200010F4E0605FFA89F919F0070108436DB2E8
:104E3000690101F1804111F51041C880380040043A
:104E4000400C6DB2690101F1804111F51041C88239
:104E50003800C005C00D6DB2690101F1804111F546
:104E60001041C8835048006830F080004E49086007
:104E7000E4B26DB2680100F1804010F5104084602A
:104E800078426DB2690101F1804111F51041C860AD
:104E900000206DB2690101F1804111F51041886176
:104EA0000A206DB2690101F1804111F5104188833A
:104EB000F6B27009313050F080006DB23B49685451
:104EC0003E4800684FF40071F6B272099140084301
:104ED0003A490860F6B27011394951F82000F6B22B
:104EE0007111374A52F821104969012216F01F0347
:104EF0009A4091434161F6B216F01F00F6B271116B
:104F0000304A52F8211018F00302C8F3811353EA13
:104F1000024252F4807241F82020F6B2002E01D0F5
:104F2000012000E00020F6B27111254A52F821104C
:104F3000F6B27211224B53F822205269012313FA60
:104F400000F032EA00004861194800680121A940D8
:104F5000084317490860280040B2FFF701FFBDE889
:104F6000F183010049B2134850F8210049B24A01C7
:104F700002F1804212F51042D28A801A704740B284
:104F80000C4951F8201040B2420102F1804212F562
:104F90001042D1827047000000E100E040800440F0
:104FA0003C8004400090004000800040001002401F
:104FB0000C8000405018FF1F0C0004403880044053
:104FC000500BFF1FAC0BFF1F38B504000225E4B2E5
:104FD000022C03DB37216F48FDF783F82800451EBC
:104FE000C0B2002807D02100C9B2EDB26A48285CDF
:104FF000FDF751FBF2E731BD38B504000225E4B2FC
:10500000022C03DB44216348FDF76BF82800451EA2
:10501000C0B2002807D02100C9B2EDB25F48285CB9
:10502000FDF739FBF2E731BD38B504000225EDB2DA
:10503000002D14D06D1EEDB259482856FFF734FDEF
:1050400000220121EDB25548285CFDF7CDFA00227F
:105050000121EDB25048285CFDF7C6FAE7E7514858
:105060000460504800685049096801FB00F10020C5
:1050700000F0CEF800F09EF831BD0CB438B5050054
:105080000C006DB2032D03DB65214248FDF729F8C2
:1050900000226DB2022D04DA6DB2444B43F8254074
:1050A00013E06DB2022D10D104AB180021002B00CB
:1050B0005D1E5BB2002B08D0D2B23C4B43F82210ED
:1050C000521C03681900001DF1E731BC5DF80CFBB0
:1050D000012037490870364890F900000228FAD1BB
:1050E000704780B5324890F90000012805D100F0E2
:1050F00010F802202E49087001E000F05BF801BDB5
:1051000081B0009000994A1E00920029FAD101B0A6
:10511000704770B5802500240020FFF76DFF0A203E
:10512000FFF7EEFF0120FFF74FFF0A20FFF7E8FF30
:105130000120FFF761FF0A20FFF7E2FF0020FFF7E1
:1051400043FF0A20FFF7DCFF2800451EC0B20028FD
:105150001ED00020FFF750FF022006003000461E40
:10516000C0B200280CD00021F6B20D483056FFF72F
:10517000A2FDE4B2F6B20D4951F826106054EDE7F5
:105180000120FFF739FF0A20FFF7BAFF641CDBE7B5
:1051900070BD0000345C0000E80BFF1FEC0BFF1F2C
:1051A000E40BFF1F9C18FF1F9818FF1FA018FF1F7C
:1051B0000419FF1F10B580240020FFF71DFF0120F8
:1051C000FFF79EFF0120FFF7FFFE0120FFF798FF8A
:1051D0000120FFF711FF0120FFF792FF0020FFF7EA
:1051E000F3FE0120FFF78CFF2000441EC0B2002810
:1051F0000CD00020FFF700FF0120FFF781FF012006
:10520000FFF7FAFE0120FFF77BFFEDE710BD00007E
:1052100038B504000D00002D03D122211748FCF7FA
:1052200060FF1748006850F400001549086000202E
:1052300014490860681E64B22101134A885064B2A0
:10524000114810EB0410C06850F0010064B20E4920
:1052500011EB0411C86064B20B4810EB04108068B5
:105260004008400064B2084911EB04118860032033
:1052700064B2054911EB0411886031BD105E000075
:105280003C800440007003400071034000000000B7
:1052900000000000002F00000000070007000014BD
:1052A0007F147F1400242A7F2A12006264081323CB
:1052B00000364955225000000503000000001C2262
:1052C0004100000041221C000014083E08140008A0
:1052D000083E0808000000A0600000080808080850
:1052E000000060600000002010080402003E5149E8
:1052F000453E0000427F4000004261514946002186
:1053000041454B31001814127F100027454545399F
:10531000003C4A49493000017109050300364949FA
:10532000493600064949291E0000363600000000B3
:1053300056360000000814224100001414141414FE
:1053400000004122140800020151090600324959A7
:10535000513E007C1211127C007F49494936003EC3
:1053600041414122007F4141221C007F494949417E
:10537000007F09090901003E4149497A007F080878
:10538000087F0000417F4100002040413F01007F35
:1053900008142241007F40404040007F020C027F01
:1053A000007F0408107F003E4141413E007F090913
:1053B0000906003E4151215E007F09192946004639
:1053C000494949310001017F0101003F4040403F10
:1053D000001F2040201F003F4038403F006314085A
:1053E0001463000708700807006151494543000035
:1053F0007F41410000552A552A55000041417F0058
:10540000000402010204004040404040000001024C
:105410000400002054545478007F48444438003835
:105420004444442000384444487F003854545418BD
:1054300000087E0901020018A4A4A47C007F0804CF
:1054400004780000447D4000004080847D00007F9F
:10545000102844000000417F4000007C04180478BC
:10546000007C0804047800384444443800FC2424B8
:1054700024180018242418FC007C080404080048A0
:105480005454542000043F444020003C4040207CC1
:10549000001C2040201C003C4030403C00442810B0
:1054A0002844001CA0A0A07C004464544C44141464
:1054B0001414141438B504000220FFF752FD7A4981
:1054C00008606320FDF73CF9012804D176480068A4
:1054D0004042754908600220FFF751FD734840685B
:1054E0007249886071480068704948606E48006879
:1054F000201A6E4908606D4800681F2803DB42F2DD
:105500001C506B4908606948006810F11E0F02DAF0
:105510006848674908606548006810F11E0F21DB84
:10552000624800681F281DDA604800685F494968C2
:10553000401AA0215D4A126828235A4301FB00202B
:105540005A490968594A5268B1EB4201574A926870
:105550005118282202FB0100050055480068281850
:10556000534908605248006842F21D51884204DBEA
:1055700042F21C504E49086007E04D4800684D4912
:10558000884202DA4B484A490860494800680028C6
:105590000CD5002202210020FCF77AFC4448006868
:1055A000424201210020FCF773FC0AE040480268F7
:1055B00002210020FCF76CFC002201210020FCF7F6
:1055C00067FC31BD80B52120FDF7BAF83A49087073
:1055D0002320FDF7B5F8394908702520FDF7B0F80C
:1055E000374908702720FDF7ABF83649087001BD30
:1055F00080B5002034490860FFF7E4FF2720FDF75D
:105600009FF801284FD1FFF7DDFFFFF7DBFF2A48A6
:1056100000780128F2D12D4800780028EED1FEF75D
:1056200081FF2720FDF78CF801282BD1FFF7CAFF57
:1056300021480078012808D124480078002804D1A6
:1056400021480068401D204908601C480078012856
:1056500008D11F480078002804D11B480068401F6B
:10566000194908601848026812B202210A20FEF7A0
:10567000ABFF1148007815490870104800781449AC
:105680000870CEE70C480078104908700B48007885
:105690000F4908700A4800780E49087009480078D8
:1056A0000D490870AAE701BDFC0DFF1F000EFF1F8A
:1056B000F80DFF1FE4DAFFFFFA18FF1FFB18FF1FAA
:1056C000FC18FF1FFD18FF1F0C0EFF1FFE18FF1F09
:1056D000FF18FF1F0019FF1F0119FF1F012110F004
:1056E0001F02914040B24209604B43F822107047BC
:1056F00080B55F48FAF790FE5E4800685E49086032
:1057000001BD80B572B64FF461410420FCF7F8FD8D
:10571000FEF777FE594B564A59490220FFF7ADFC78
:105720000520FFF781FC0FF2C101542000F0CFF8F3
:105730004420FFF7D3FFA22347F6FF721321012075
:10574000FFF719FBA22347F6FF7232210220FFF771
:1057500012FB002200216020FCF746FF00220021FE
:105760006320FCF741FF002200212120FCF73CFFD1
:10577000002200212320FCF737FF002200212520F2
:10578000FCF732FF002200212720FCF72DFF002329
:1057900042F2107201210020FCF7BCFA002342F211
:1057A000107202210020FCF7B5FA002342F21072B9
:1057B00003210020FCF7AEFA002342F2107204210C
:1057C0000020FCF7A7FA0023C82200210120FCF7E3
:1057D000A1FAFFF70DFF62B6FFF77AFCFFF788FF2B
:1057E000FBF752FDF8E7000080B52648006850F04E
:1057F000010024490860FFF774FC23480068401C3E
:105800002149086020480068B0F5FA7F07DD1F488D
:1058100000681F4908601F4800681F4908601F484A
:105820000068012804D11E480068401C1C4908601B
:105830001B480068652802DB0220184908601948E7
:105840000068012804D118480068401C1649086007
:1058500015480068652805DB002012490860032010
:105860000E4908602320FFF725FE01BD00E100E09E
:10587000900EFF1F1804FF1F2404FF1F100FFF1FAF
:10588000100EFF1F0C7103409012FF1F9C12FF1F90
:105890004018FF1FA012FF1F4418FF1FF012FF1F28
:1058A0004C18FF1FF412FF1F4818FF1F10B504000B
:1058B0004FF4007094FBF0F101FB1041002903D07C
:1058C0001E210B48FCF70DFC0A48046010BD38B5DA
:1058D00004000D00074800680749884203D03021C2
:1058E0000348FCF7FEFB64B2034840F8245031BD86
:1058F000485E000008ED00E00000FF1FDFF800F048
:10590000E3200000DFF800F0D3220000F0204D4932
:1059100008704C4800780006FBD54A480078712191
:10592000084201D0002000E00120704780B54648C1
:10593000006850F40020444908604448006850F46E
:105940000020424908603F4800780006FBD5F0205F
:105950003C4908700A20FFF7D5FF01BD10B582B0A1
:105960000400A4B24FF4006000FB04F00090092092
:10597000374908709DF80200364908709DF801000B
:10598000354908709DF8000034490870FFF7BEFFE4
:10599000002801D100200CE0A4B2002C08D17FF037
:1059A000010240F20C41200080B200F003F800E058
:1059B000012016BD7CB504000D001600A4B24FF402
:1059C0000060ADB200FB04500190ADB2042095FB25
:1059D000F0F101FB1051002903D0EA212048FFF724
:1059E0008DFFADB2B5F5006F03DDEC211C48FFF76C
:1059F00085FF9DF80600174908709DF805001649B7
:105A000008709DF804001549087000969DF8030081
:105A1000144908709DF80200134908709DF80100B0
:105A2000124908709DF800001149087006200849C5
:105A30000870FFF76BFF002801D1002000E0012073
:105A400076BD00000000024004F0014008F0014073
:105A50000700024006000240050002400400024028
:105A6000B05C00000B0002400A0002400900024046
:105A700008000240F0B4114E366834000F4E36680C
:105A800056F47F060D4F3E600E0616F0706656EA1D
:105A90000076170517F470073E431F0417F47027AC
:105AA0003E43074F3E6000263500EDB29D4201D2D5
:105AB0006D1CFAE7014E3460F0BC704700F0014005
:105AC0004480044080B500F095F800F02AF800F01A
:105AD0000AF8FCF723FB012201210420FCF784FDD6
:105AE000FFF70FFEFEE780B50D20FEF776FF334986
:105AF0000860324800684FF47A71484330490860C2
:105B00002F4800682F490968C1F30361491CB0FBA5
:105B1000F1F02D4908604FF461410420FCF7F0FBDF
:105B200001BD2DE9F8432948294988420DD00020BC
:105B30008046B8F5826F08D2254850F828002349DE
:105B400041F8280018F10108F3E72048FFF7AEFEFE
:105B5000204807002048060020480400A01B80467B
:105B60004046B0F10108002804D030783870761C27
:105B70007F1CF5E71A4881461A480500B5EB090075
:105B800080464046B0F10108002805D0002089F881
:105B9000000019F10109F4E713481449144A531A93
:105BA00098464346B3F10108002B04D00B780370EC
:105BB000491C401CF5E7BDE8F18300009418FF1F65
:105BC0009018FF1F448004409818FF1F0000FF1F1B
:105BD000000000001004FF1F643A0000844200002F
:105BE000F80DFF1F0519FF1F300CFF1FFC580000A8
:105BF000C45A000080B500F008F80C4800884FF641
:105C0000FE7108400949088001BDEFF3118072B6AA
:105C10004CF22051064A11804DF62811044A118099
:105C2000C0B2002800D162B67047000000200540D5
:105C30000E200540433A5C55736572735C4A616D92
:105C40006F726E5C4465736B746F705C6363645FEA
:105C500070726F6772616D5C426F6172645C7372C7
:105C6000635C5643414E5F54534C313430312E63A4
:105C7000000000000A2A2A2A2A64656661756C748D
:105C80005F69737220656E7465726564206F6E2043
:105C9000766563746F722025642A2A2A2A2A0A0AE2
:105CA000257320496E74657272757074000000006F
:105CB000433A5C55736572735C4A616D6F726E5CDA
:105CC0004465736B746F705C6363645F70726F675D
:105CD00072616D5C436869705C7372635C4D4B36D6
:105CE000305F666C6173682E63000000433A5C5558
:105CF000736572735C4A616D6F726E5C4465736B41
:105D0000746F705C6363645F70726F6772616D5C07
:105D1000436869705C7372635C4D4B36305F6770CB
:105D2000696F2E6300000000433A5C55736572731F
:105D30005C4A616D6F726E5C4465736B746F705C0E
:105D40006363645F70726F6772616D5C43686970F2
:105D50005C7372635C4D4B36305F53797354696387
:105D60006B2E6300433A5C55736572735C4A616DD8
:105D70006F726E5C4465736B746F705C6363645FB9
:105D800070726F6772616D5C436869705C73726397
:105D90005C4D4B36305F756172742E6300000000FD
:105DA000433A5C55736572735C4A616D6F726E5CE9
:105DB0004465736B746F705C6363645F70726F676C
:105DC00072616D5C436869705C7372635C4D4B36E5
:105DD000305F6164632E6300433A5C557365727390
:105DE0005C4A616D6F726E5C4465736B746F705C5E
:105DF0006363645F70726F6772616D5C4368697042
:105E00005C7372635C4D4B36305F66746D2E63005D
:105E1000433A5C55736572735C4A616D6F726E5C78
:105E20004465736B746F705C6363645F70726F67FB
:105E300072616D5C436869705C7372635C4D4B3674
:105E4000305F5049542E6300433A5C55736572735A
:105E50005C4A616D6F726E5C4465736B746F705CED
:105E60006363645F70726F6772616D5C43686970D1
:105E70005C7372635C6D6973632E630010B50749D0
:105E800079441831064C7C44163404E00A68081D35
