:10000000F8FF0020110400002F2900002F29000014
:100010002F2900002F2900002F2900002F29000080
:100020002F2900002F2900002F2900002F29000070
:100030002F2900002F2900002F2900002F29000060
:100040002F2900002F2900002F2900002F29000050
:10040000FFFFFFFFFFFFFFFFFFFFFFFFFEFFFFFFFD
:1004100062B604F039FBFEE72DE9F04FA1B0824649
:1004200002AE002017461D46029170620DF144088D
:100430000AE017F8011B0298D0470290002800F04C
:10044000D482706A401C7062387808B9706ACEE253
:100450002528EED10020F06030617061B061F0615C
:10046000306201E040F0010017F8011F2029F9D0A7
:1004700023290DD02B2904D02D2906D030290AD0CC
:100480000CE040F0020080B2EEE740F00400FAE732
:1004900040F00800F7E740F01000F4E72A290DD1FA
:1004A00029680A1D2A600968F162002904D54942B9
:1004B00040F00400F16280B27F1C13E00021F16281
:1004C0000BE0F16A6FF00043994205D001EB810324
:1004D00002EB43013039F1627F1C3A78A2F130011E
:1004E0000A29EED339782E2903D04FF0FF31B162BB
:1004F0001EE017F8011F2A2906D129680A1D2A6063
:100500007F1C0968B16213E00021B1620BE0B16A9F
:100510006FF00043994205D001EB810302EB4301E8
:100520003039B1627F1C3A78A2F130010A29EED34A
:1005300030860FF6AC20397800F070FD08B117F85E
:10054000010B8DF83A009DF83A00682802BF39780F
:100550006829622005D06C2804BF38786C2803D144
:1005600071208DF83A007F1C11A8B0603978B1F184
:10057000250023D02038022840F2B980133800F03B
:10058000E1800B3800F07781401E00F02081401E92
:10059000022840F2AC80001F00F01981401F7BD080
:1005A000401E00F0CF80401E22D0C01E0BD0801E07
:1005B00000F0C880C01E00F0C58064E1F068411CF6
:1005C000F160252169E12868011D29600068B26A8F
:1005D0007060002A02D500F02DFD07E0002100F038
:1005E00045FD00281ABF7168401AB06A306156E1B3
:1005F0002868011D296000210068CDE900014FF045
:100600003C0E11A87060DDE9000111B908B9B26AA9
:10061000CAB10206120FA0EB02123032AEF1010392
:10062000D2B29E463A2AA8BF2732000903F8082012
:1006300040EA0170090908BF002804D0726811ABB4
:1006400073449A42E5D311A971447160CEF13C0024
:10065000B16A3061884207DA081AB0614FF6EF716B
:10066000308E084030861AE1002940F1188196F852
:10067000301001F01401102940F01181F16AF26884
:10068000891AB269891AA1EB000EBEF1010FC0F2FE
:100690000681C6F818E002E19DF83A00622818D0F9
:1006A000682806D06A280BD06C2819D0712807D08A
:1006B00016E02868011D29600068716A0180EEE07B
:1006C0002A68101D28601268706AC117C2E900010B
:1006D000E5E02868011D29600068716A0170DEE0AC
:1006E0002868011D29600068716A0160D7E02868E8
:1006F000C01D20F00700286000F108022A60D0E940
:100700000023CDE90023002B04D5F068421CF260E1
:100710002D220DE0308E820704D5F068421CF26075
:100720002B2205E0C00705D5F068421CF2602022AC
:1007300000F80820F06811AA8018706000A800F086
:10074000DDF9ACE09DF83A006C2808BF2A6811D0AA
:10075000712808BF2A6802D02A686A280AD1D21DE7
:1007600022F007022A60144604F108022A60D4E944
:10077000002303E0131D2B6000231268CDE9002342
:10078000682808BF92B207D0622808BFD2B203D04F
:10079000742818BF7A2802D10023CDE9002396F8E7
:1007A000300000075FD5DDE90023002B08BF002AD9
:1007B00059D041F02000782855D1F068302200F857
:1007C0000820401C421CF26000F808104BE09DF825
:1007D0003A0062280CD0682810D06A281AD06C28F9
:1007E00023D0712816D074281FD07A280CD01CE092
:1007F0002868021D2A6090F900201AE02868021D6E
:100800002A60B0F9002014E02868021D2A60002345
:1008100002680FE02868C01D20F00700286000F182
:1008200008022A60D0E9002304E02868021D2A603B
:100830000268D317CDE90023002B04DAF068421CCC
:10084000F2602D220DE0308E820704D5F068421C44
:10085000F2602B2205E0C00705D5F068421CF2606B
:10086000202200F80820F06811AA8018706000A803
:1008700000F0C0F813E0F068411CF16029680A1D1F
:100880002A60096809E0F068421CF260252200F83D
:10089000082021B1F068421CF26000F80810F06AEC
:1008A000F168401AB169401A3169401AF169401A79
:1008B0007169401A316AA0EB010996F830007F1C7B
:1008C000400710D420208DF84000002409E00123C7
:1008D00010AA00A9504600F06BFB002840F085806C
:1008E000641C4C45F3DBF4680DF1440B0AE01BF883
:1008F000011B0298D0470290002876D0706A401CF5
:100900007062641E002CF2D130208DF840004FF050
:10091000000BB46909E0012310AA00A9504600F0B9
:1009200047FB002861D10BF1010BA345F3DB3469D0
:10093000D6F804B00AE01BF8011B0298D0470290D9
:10094000002852D0706A401C7062641E002CF2D1E4
:1009500030208DF840004FF0000BF46909E00123CE
:1009600010AA00A9504600F023FB00283DD10BF14E
:10097000010BA345F3DB30697168746900EB010B6F
:1009800009E01BF8011B0298D047029068B3706A17
:10099000401C7062641E002CF3D130208DF84000A2
:1009A0004FF0000B346A08E0012310AA00A950465A
:1009B00000F0FEFAC8B90BF1010BA345F4DB96F881
:1009C000300040077FF540AD20208DF84000002426
:1009D00000E0641C4C45BFF637AD012310AA00A906
:1009E000504600F0E5FA0028F3D04FF0FF3021B078
:1009F000BDE8F08F2DE9FA4E05460A462F696F2AA9
:100A000008BF082405D041F02000782814BF0A242C
:100A10001024D5E900013C2681468B46642A18BF84
:100A2000692A05D1002903DAD9F100096BEB4B0BD8
:100A3000BBF1000F08BFB9F1000F0CD1286B50B902
:100A4000082C36D195F83800000732D530203B26E7
:100A500087F83B002DE0E31748465946224600F050
:100A600031FBA4FB0023A9EB02023032A6F1010AFC
:100A7000D2B256463A2A03DB9DF80030513B9A1811
:100A80000AF8072081465FEA010B08BFB9F1000FA1
:100A900003D0E868F1198842DDD3082C09D195F814
:100AA0003800000705D5F05D302802D0761E3020D2
:100AB000F055C6F13C00A861F119E960296B884244
:100AC00008DA081A28624FF6EF71288F0840288745
:100AD000BDE8F38E00290ED595F8381001F0140109
:100AE000102908D1696B6A69891A2A6A891A081A51
:100AF0000128A8BF2862BDE8F38E00002DE9F34F5E
:100B00008BB0D0E90089006B01AF002848BF0620F8
:100B100005D404BF41F02000672802D101200B99C1
:100B2000086340F2FF720B984168C1F30A5090428B
:100B300020D1080302BF0B98006800280AD10B9946
:100B4000032088619DF8300061381A2858D30FF2CD
:100B5000A44109E00B99032088619DF830006138B9
:100B60001A284AD30FF284410B98C068032200F080
:100B700021FB00E1012807DA0B9800F056FB012861
:100B800002DB00230026EDE00B9A526840F2FE31B2
:100B900061F31E520B994A6040F2FE31461A4046FC
:100BA00049460022002300F061FB38BF89F000496C
:100BB00036B247F2975070434949DFF828B190FBAD
:100BC000F1F636B2C6F107079246012F1BDBF80794
:100BD00007D552465B464046494600F05FFB8046DB
:100BE00089467F105046594652465B4600F056FBF8
:100BF00082468B46002FEAD126E00FF2EC31B3E7B4
:100C00000FF2EC31B0E77F420024374D12E0F807D5
:100C100007D552465B462046294600F03FFB044676
:100C20000D467F105046594652465B4600F036FB53
:100C300082468B46002FEAD14046494622462B4643
:100C400000F0FEFB804689469DF8300040F020050C
:100C5000662D0CBF06F10A0006200B99096B471898
:100C6000142FA8BF132730208DF804000DF10504C0
:100C7000DFF878B0012F3BDB4046494600F01AFD13
:100C8000014604F1080204234FF00A0CB1FBFCFCFE
:100C90000CEB8C04A1EB4401303102F8011D0A2158
:100CA000BCFBF1FE0EEB8E04ACEB44043034714619
:100CB00002F8014D5B1EE7D1083F02F10804012F45
:100CC000D8DB00F00DFD02460B464046494600F0D9
:100CD00015FD00225B4600F0E1FA80468946CBE72D
:100CE000A0860100000024400000F03F84D7974117
:100CF0000DF10500201A0DF1050702E0401E761ED9
:100D00007F1C39783029F9D0662D02D136B2711C9A
:100D100003E0652D0CBF012100210B9A126B8B188B
:100D20001BB29842B8BF03461BB219001AD48142C5
:100D300004DAC85D3528A8BF392000DA3020CA1986
:100D4000521E00E05B1E12F80159491E8542F9D07F
:100D5000392802D1C85D401CC855002902D57F1E24
:100D60005B1C761C36B29DF830100B9800961BB2B7
:100D70003A4600F003F80DB0BDE8F08F2DE9F047DA
:100D800086B006468A4690461D4600F094FD406AAD
:100D9000376B90F80090012D02DA01250FF25828E8
:100DA0004AF02000BDF93840662808BF641C13D003
:100DB000672840F0878014F1040F72DBBC4270DAC0
:100DC00096F83800641C000702D4BD42B8BF2F4615
:100DD00024B23F1B48BF0027F068B16924B2012C40
:100DE00021DA30234A1C0B54012F03DA96F838100D
:100DF000090702D502F80090521CB261E742B8BF61
:100E00007C4224B26142E7197162AF42B8BF3D46ED
:100E10002DB2F5612A46B3694146181800F0CAF9A7
:100E2000781BB062ADE00818A54216DA2A464146A2
:100E300000F0C0F9B1696918B161601B7062012FDF
:100E400003DA96F83800000705D5F06801F800903D
:100E5000F069401CF061B76293E02246414600F021
:100E6000A9F9B06920182D1B012F03DA96F8381064
:100E7000090703D5F16800F80190401C2DB2B0615C
:100E8000AF42B8BF3D46F3682DB22A4604EB0801D5
:100E9000C01800F08FF9B0692818B061781B706233
:100EA0006FE0BD4204DA96F83810090758BF2F46A4
:100EB0007F1E48BF0027BAF1670F0CBF4FF0650ACD
:100EC0004FF0450AB169F06818F8013B0B544A1C11
:100ED000012F05DA96F83810090758BFB26115D509
:100EE00002F80090531CB361012F0FDB6D1E2DB271
:100EF000AF42B8BF3D462DB22A464146181800F011
:100F000059F9B0692818B061781B7062B069F1684E
:100F100000EB0108200008F801AB03D42B2008F8EF
:100F2000010B03E02D2108F8011B6442002502AFEC
:100F300008E00A2200A800F0D7FC019807F8010B8E
:100F40006D1C009C21B20129F3DA022D06DA4AF069
:100F50002000652804BF302008F8010B4DB930206F
:100F600008F8010B07E06D1E02A8285C303008F875
:100F7000010B012DF7DAB069F1684018A8EB000009
:100F8000F06196F8380000F0140010280DD1706957
:100F9000B1690818716A0818F1690818B16A081867
:100FA000716B8842BCBF081A306206B0BDE8F0879A
:100FB000F8B504460D4616461F46002004E0E86AD0
:100FC000401CE8627F1E002047B116F8011BA8688C
:100FD000A047A8600028F2D14FF0FF30F2BD00001A
:100FE000686A6C747A4C00006E616E004E414E006F
:100FF000696E6600494E4600300050F8041B61B12E
:1010000050F8042BD30744BFA9F101039A18002319
:1010100042F8043B091FFAD1EFE770470278C9B2E2
:101020008A421AB11CBF10F8012FF9E718BF00203F
:101030007047000000F10103810704D010F8011B84
:1010400089B18107FAD10268B2F10131914311F0FF
:10105000803F04BF50F8042FF6E710F8011B11B1D0
:1010600010F8011BFBE7C01A70470000C9B28307E4
:1010700006D0521E22D310F8013B9942F7D11FE04F
:10108000083A13D302F1040241EA012141EA014185
:1010900050F8043B121F21BF4B40A3F1013C2CEA46
:1010A000030C1CF0803FF3D0C9B2001F083210F8C7
:1010B000013B521E28BF91EA030FF8D818BF012048
:1010C000401E70471B4213D1094236D12AB18446D3
:1010D000B0FBF2F002FB10C2704700F00DBCFCD375
:1010E0000022002370470B000200002100207047FF
:1010F000904271EB030CF6D370B5B1FA81F4B3FAF8
:1011000083F52C1BA340C4F1200532FA05F63343C6
:10111000A2405FF00046E64002E05B085FEA320270
:10112000841A71EB030524BF204629467641F4D387
:1011300002000B003000002170BD012ACFD970B52C
:10114000140C20D0B1FA81F4B2FA82F5C4F1200473
:101150006419B4F12006D6D3B2405FF00044F440E5
:10116000002502E052085FEA3303C61A71EB020E53
:1011700024BF3046714664416D41F3D302000B0039
:101180002000290070BD0C46B1FBF2F102FB1145B5
:101190002D0445EA1045B5FBF2F402FB145580B26C
:1011A00040EA0545B5FBF2F002FB105240EA04406C
:1011B00070BD000062B38B0708D0521E11F8013BCE
:1011C00000F8013B00F024808B07F6D1830740F044
:1011D000208000BF103A07D330B4B1E83810103A7D
:1011E000A0E83810F9D230BC530724BFB1E808108A
:1011F000A0E8081044BF51F8043B40F8043BD20774
:1012000024BF31F8022B20F8022B44BF0B78037067
:101210007047083A07D3B1E80810083A40F8043B91
:1012200040F804CBF7D25307E4E730B4436803F047
:10123000004201211B031B0B436004BF0368002B0A
:1012400008D10DE00368DD0F45EA440444605B000B
:101250000360491E4468E302F4D523031B0B43607B
:1012600043681A434260084630BC70474FF4001C84
:101270001CEB410F94BF1CEB430F09E041EA030C48
:1012800050EA4C0C52EA0C0C03D2994208BF90422F
:10129000704714BF8B42824270470000B0B581EAAC
:1012A000030C0CF0004C40F2FF7515EA11541DBF01
:1012B00015EA1357AC42AF4239E0E41923EA45532B
:1012C00043F48013C90241F0004141EA505EC70275
:1012D0001100A7FB020200284FF00000EEFB0120E6
:1012E0004FF00001E3FB072118BF42F00102401854
:1012F00000214941E3FB0E01A4F580640F0302D2F3
:1013000052004041494154F101046CDD470872F13B
:10131000004250F1000051EB0451A1F580115CBF77
:1013200041EA0C01B0BD4CEA05510020B0BD05EA10
:101330001357AC4214BFAF4241E050EA410E1CBF0C
:1013400052EA430E02E061460020B0BD24423C4414
:101350001BD15FEA070EF6D0090302BF0146002049
:10136000AEF1140EB1FA81F7AEEB070401FA07FEF5
:101370000C37C7F1200100FA07F7C8404EEA000E0B
:1013800023EA455343F48013A2E733F00043B3FA52
:1013900083F704BFB2FA82FE77440B3FE41BB7F138
:1013A000200E2FBF02FA0EF3BB40C7F1200E22FA27
:1013B0000EFE38BF43EA0E03BA40641C82E750EACF
:1013C000410E14BF52EA430E6FF000014FF40017B4
:1013D00017EB430F8ABF194617EB410FB5E74CEAED
:1013E00005510020B0BDD4F10104B4F120070FDA9B
:1013F000C4F12007520828BF42F0010210FA07F595
:1014000001FA07F7E1BF2A43E0403843E1400FE02B
:10141000352C98DCC7F1200452EA400220FA07F28A
:1014200018BF42F0010231FA07F0A1400A4300213F
:1014300072F1004250F1000051EB0C01B0BD000010
:10144000F0B540F2FF7581EA030C0CF0004C15EA90
:1014500011541DBF15EA1357AC42AF42E5E0BC4141
:10146000C1F31301C3F31303801A994143F48013AA
:1014700004D2641E4000494180185941C90241EA22
:101480005051B1FBF3F603FB1611A2FB0675D7EB27
:10149000C020A94102D2761E80185941C90241EAF2
:1014A0005051B1FBF3FE03FB1E11A2FB0E75D7EBEF
:1014B000C020A94103D2AEF1010E80185941890222
:1014C00041EA9051760546EA8E2EB1FBF3F603FB16
:1014D0001611A2FB0675D7EB8020A94102D2761E19
:1014E00080185941C90241EA50514EEA060EB1FB3B
:1014F000F3F603FB1611A2FB0675D7EBC020A9413A
:1015000002D2761E80185941C90241EA5051B1FBFE
:10151000F3F703FB1711A2FB0735D3EBC020A9415A
:1015200067F100070CBF004247F0010766F3D527BB
:101530004FEA1E31B80814F5806412DDBD0775F15D
:10154000004250EB0E5051EB045111F5801F5CBF6F
:1015500041EA0C01F0BD4CF07F6141F0E041002018
:10156000F0BDBD076D0840EA0E5041F48011D4F182
:101570000104B4F120060ADAC4F120060200E040BA
:1015800001FA06F3E1401843B24015430EE0342C53
:1015900013DCC6F1200445EA40056D0820FA06F286
:1015A000154321FA06F0A1400D43002175F10042D8
:1015B00050F1000051EB0C01F0BD00205FEA0C017E
:1015C000F0BDCFB992185B41B3FA83F704BFB2FA0A
:1015D00082F6BF190B3FB7F120062FBF02FA06F3C0
:1015E000BB40C7F1200622FA06F638BF3343BA40A3
:1015F0001CB1E419641E33E77F4231F00041B1FAB7
:1016000081F404BFB0FA80F6A4190B3CB4F12006B3
:101610002FBF00FA06F1A140C4F1200620FA06F619
:1016200038BF3143A0403C1B1AE7AC421ABF05EA61
:101630001357AF4212E050EA41061CBF52EA43067C
:10164000BFE750EA4107304661461CBF41EA0551F9
:10165000F0BD52EA430C08BFC143F0BD00204FF477
:10166000001616EB410F98BF16EB430F08BF16EBA1
:10167000410F24BFC14305E016EB430F0CBF614689
:101680004CEA0551F0BD0000F446400D40EAC1208F
:10169000490006D200F014F8004248BF6FF0004045
:1016A000604700F00DF84FF0004188428CBF0846BB
:1016B00040426047400D40EAC120490080F00D8063
:1016C00040F00040490DA1F58061491C05D4D1F1DD
:1016D0001F0154BFC840C01770474FF0000070474B
:1016E000010000BF09D0B0FA80F18840C91CC1F5E3
:1016F0008461090501EBD0214005704770B44FF0BB
:10170000004591EA030F44BF6B4000F0F7B800BFFB
:10171000841A71EB030604D26E40001BB14112190A
:1017200073414FF4001C1CEB410F34BF7CEB4306AC
:1017300084E00C0DA4EB1356362E7DDC012E43DC29
:1017400045EAC32343EA525312BFD20292025B0816
:10175000240545EAC12141EA5051D2EBC02099410C
:1017600025D407D1B0FA80F610FA06F164D0002033
:10177000203608E0B1FA81F6B140C6F1200220FA25
:1017800002F21143B0404FEAF474B4EB465434F023
:1017900001064FEA74040AD8D6F50016760D04F057
:1017A0000044F04061FA06F25040F1404840C00A5F
:1017B00040EA415021F0004128BF5FEA500550F156
:1017C000000044EBD12137E045EAC323DB0A45EAB8
:1017D000C121C90AB6F120050EDD42EA0242120C0F
:1017E000C5F1200603FA06F6EB4042EA06056D4213
:1017F000984161F100010DE062FA06F5F2405540B2
:1018000063FA06FC82EA0C02F3405A406D429041B2
:1018100061EB030111F4801F05D1641E620502D043
:101820006D004041494121F48011430875F10043A6
:1018300050F1000041EB045170BC70471CEB410FAC
:1018400015D223F0004352EA43060BD04FEA4C0C6A
:10185000BCEB410F04D80C0D661E342EB7DDEBE750
:10186000801A994150EA410608BF0021E4E708BF09
:101870001CEB430F28BF6FF00001DDE780B5134874
:1018800000F0A6F80FF24801016041608160C1607C
:101890000161416181610FF23C0242628162C16279
:1018A000016341630FF2300282630FF23402C263BC
:1018B0000164416401BD10B5044800F089F8044694
:1018C000206808B9FFF7DAFF204610BD3014FF1F6B
:1018D000000000002E00000066616C7365000000CF
:1018E000747275650000000091FBF2F303FB1211A6
:1018F000C0E900317047000070470000841A71EBA6
:10190000030603D2001BB141121973414FF4001CAE
:101910001CEB410F34BF7CEB430443E00C0DA4EB04
:101920001356352E50DC45EAC323DB0A45EAC121B4
:10193000C912B6F120050DDD63FA05F6EB4086EA23
:101940000305124218BF45F00105C01851F100010E
:101950000CD213E062FA06F5F2405540F3415A40CA
:10196000B340F3405A408018594107D349085FEA11
:1019700030005FEA350528BF45F0010501F580110B
:10198000420875F1004250F1000041EB045170BC77
:101990004FF4001C1CEB410F38BF70470020090DAD
:1019A000090570471CEB410F10D252EA43060BD0D9
:1019B000BCEB410F05D80C0DAB43661E342EB5DDD4
:1019C00002E0AB438018594170BC704770BC70474F
:1019D000704700006F12833A000040406666E63FA1
:1019E000CDCCCC3F4000000000B0034000B00B4025
:1019F00000000000000000000000000000000000E7
:101A000000000000000000000000000000004E6F19
:101A10006E4D61736B61626C65000000004861721D
:101A2000644661756C740000000000004D656D4DEA
:101A3000616E6167656D656E740000427573466125
:101A4000756C740000000000000055736167654606
:101A500061756C74000000000000000000000000D0
:101A60000000000000000000000000000000000076
:101A70000000000000000000000000000000000066
:101A80000000000000000000000000000000000056
:101A90000000000000535643616C6C000000000021
:101AA0000000000044656275674D6F6E69746F7267
:101AB0000000000000000000000000000000000026
:101AC000000050656E6453560000000000000000E6
:101AD000005379735469636B00000000000000003C
:101AE000444D4130000000000000000000000044B0
:101AF0004D41310000000000000000000000444D96
:101B000041320000000000000000000000444D4190
:101B1000330000000000000000000000444D41348C
:101B20000000000000000000000000444D413500AE
:101B300000000000000000000000444D413600009D
:101B4000000000000000000000444D41370000008C
:101B50000000000000000000444D4138000000007B
:101B600000000000000000444D413900000000006A
:101B7000000000000000444D413130000000000032
:101B80000000000000444D41313100000000000021
:101B900000000000444D4131320000000000000010
:101BA000000000444D4131330000000000000000FF
:101BB0000000444D413134000000000000000000EE
:101BC00000444D41313500000000000000000000DD
:101BD000444D415F4572726F720000000000004D7D
:101BE000434D0000000000000000000000004654CB
:101BF000464C00000000000000000000005265613B
:101C0000645F436F6C6C6973696F6E004C56445F20
:101C10004C565700000000000000004C4C570000DC
:101C20000000000000000000000057617463686459
:101C30006F6700000000000000524E4700000000E7
:101C400000000000000000004932433000000000A6
:101C50000000000000000049324331000000000095
:101C60000000000000005350493000000000000058
:101C70000000000000535049310000000000000047
:101C80000000000053504932000000000000000036
:101C900000000043414E305F4F525F4D425F62751E
:101CA000660043414E305F4275735F4F66660000C9
:101CB0000043414E305F4572726F720000000000B9
:101CC00043414E305F54785F5761726E696E67436F
:101CD000414E305F52785F5761726E696E67434163
:101CE0004E305F57616B655F557000000052657341
:101CF00065727665643531000000000052657365D9
:101D0000727665643532000000000043414E315F59
:101D10004F525F4D425F6275660043414E315F42F4
:101D200075735F4F666600000043414E315F457238
:101D3000726F72000000000043414E315F54785FC3
:101D40005761726E696E6743414E315F52785F57DB
:101D500061726E696E6743414E315F57616B655FBB
:101D60005570000000526573657276656435390000
:101D700000000000526573657276656436300000BD
:101D800000000055415254305F52585F54580000D3
:101D9000000055415254305F45525200000000008F
:101DA0000055415254315F52585F545800000000B2
:101DB00055415254315F4552520000000000005519
:101DC000415254325F52585F545800000000554150
:101DD0005254325F455252000000000000554152FB
:101DE00054335F52585F545800000000554152541C
:101DF000335F4552520000000000005541525434F8
:101E00005F52585F54580000000055415254345FEF
:101E100045525200000000000055415254355F52B7
:101E2000585F54580000000055415254355F4552E8
:101E30005200000000000041444330000000000058
:101E40000000000000004144433100000000000099
:101E50000000000000434D50300000000000000072
:101E600000000000434D5031000000000000000061
:101E7000000000434D503200000000000000000050
:101E8000000046544D30000000000000000000003B
:101E90000046544D3100000000000000000000002A
:101EA00046544D32000000000000000000000043D6
:101EB0004D540000000000000000000000005254DB
:101EC00043000000000000000000000000526573A5
:101ED0006572766564383300000000005049543064
:101EE00000000000000000000000005049543100D4
:101EF00000000000000000000000504954320000C3
:101F000000000000000000000050495433000000B1
:101F100000000000000000005044423000000000BB
:101F20000000000000000055534230000000000097
:101F300000000000000055534244434400000000EC
:101F40000000000000454E45545F313538385F547D
:101F5000696D6572454E45545F5472616E736D696B
:101F6000740000454E45545F5265636569766500AF
:101F70000000454E45545F4572726F7200000000CC
:101F80000049325330000000000000000000000053
:101F900053444843000000000000000000000044DB
:101FA00041433000000000000000000000004441F8
:101FB00043310000000000000000000000545349BD
:101FC0003000000000000000000000004D4347000A
:101FD00000000000000000000000004C5054696D3B
:101FE00065720000000000000000526573657276A3
:101FF000656431303200000000504F5254410000FF
:102000000000000000000000504F52544200000049
:1020100000000000000000504F5254430000000038
:10202000000000000000504F525444000000000027
:102030000000000000504F52544500000000000016
:1020400000000000526573657276656431303800B7
:1020500000000052657365727665643130390000A6
:10206000000052657365727665643131300000009E
:10207000005265736572766564313131000000008D
:10208000526573657276656431313200000000522A
:102090006573657276656431313300000000526506
:1020A00073657276656431313400000000526573E7
:1020B00065727665643131350000000052657365E4
:1020C00072766564313136000000005265736572C6
:1020D00076656431313700000000526573657276B1
:1020E00065643131380000000052657365727665B1
:1020F000643131390000000000800340009003404B
:1021000000800B4000900B4000F00F4040F00F406B
:1021100080F00F40C0F00F4000F10F4066000A1D34
:1021200032000701640007106E00040678000408FE
:102130008200040A8C00040C9600040EA000041017
:10214000AA000412B4000414BE000416C800041847
:10215000D200041ADC00041CE100041DE600041E89
:10216000EB00041FF4000317FA0003181301010623
:102170002C010214000109080090044000A0044052
:1021800000B0044000C0044000D0044000A006405D
:1021900000B0064000C0064000D0064000A00E403F
:1021A00000B00E406A6E6B6C676D4E4F343536373B
:1021B0000E11210046848A0049858C000204010129
:1021C000D813FF1F2814FF1FD813FF1FD813FF1F9A
:1021D000D813FF1F350CFF1F1C0CFF1F0000000051
:1021E00000000000000000000000000000000000EF
:1021F00000000000000000000000000038B50400EE
:102200000D0064B2002C06D0022C69D04CD3032CF4
:1022100000F08280C7E0DFF85405006850F080705D
:10222000DFF8481508606DB2002D0BD0022D15D0D7
:102230000ED3042D1ED017D3062D27D020D3072D63
:102240002AD02FE04FF48061412000F099FA2AE073
:102250004FF44071042000F093FA24E04FF44071F1
:10226000052000F08DFA1EE04FF44071062000F0CA
:1022700087FA18E04FF44071072000F081FA12E06D
:102280004FF48061652000F07BFA0CE04FF4806130
:10229000662000F075FA06E04FF48061672000F0D8
:1022A0006FFA00E07FE07EE0DFF8C004006850F0E5
:1022B0000070DFF8B81408606DB2002D02D0012D57
:1022C00006D00BE04FF440710C2000F059FA06E004
:1022D0004FF440710D2000F053FA00E063E062E03B
:1022E000DFF88C04006850F08070DFF88414086018
:1022F0006DB2002D02D0012D06D00BE04FF44071DD
:10230000322000F03DFA06E04FF44071332000F037
:1023100037FA00E047E046E0DFF85404006850F088
:102320000070DFF84C1408606DB2002D0BD0022D48
:1023300015D00ED3042D1ED017D3062D27D020D3B1
:10234000072D2AD02EE04FF4C061852000F018FA46
:1023500028E04FF4C061862000F012FA22E04FF42A
:10236000C061872000F00CFA1CE04FF4C0618820A7
:1023700000F006FA16E04FF4C061892000F000FA80
:1023800010E04FF4C0618A2000F0FAF90AE04FF43F
:10239000C0618B2000F0F4F904E04FF4C0618C20A0
:1023A00000F0EEF9FFE731BD2DE9F84F04000D0014
:1023B00016001F0064B2002C11D064B2012C02D0B0
:1023C00064B2022C02D16DB2022D08DB64B2032C80
:1023D00005D04FF4C271DFF89C0300F03EFA2900EB
:1023E00049B2200040B2FFF709FFDFF88C03006814
:1023F0004FF47A71484380465FEA1840B0FBF6F02C
:102400008146002082461FFA89F959FA0AF001280C
:1024100002DB1AF1010AF6E75FFA8AFABAF1080F4D
:1024200005DB40F29F11DFF84C0300F016FA38FA92
:102430000AF0B0FBF6F0814664B2002C05D0022C05
:102440001BD00ED3032C23D02DE01FFA89F919F1EC
:10245000010000FB07F042F21071B0FBF1F083467F
:1024600021E01FFA89F919F1010000FB07F042F29F
:102470001071B0FBF1F0834615E01FFA89F919F1EC
:10248000010000FB07F06421B0FBF1F083460AE095
:102490001FFA89F919F1010000FB07F06421B0FB74
:1024A000F1F08346FFE76DB264B2DFF8D00250F876
:1024B000240010EBC5006DB264B2DFF8C01251F811
:1024C000241011EBC501C96831F00401C1606DB27F
:1024D00064B2DFF8A80250F8240010EBC5002821F0
:1024E000C1605FFA8AFA1AF0070050F0080064B27F
:1024F000DFF8881251F8241008601FFA89F964B2D5
:10250000DFF8780250F82400C0F80890002064B288
:10251000DFF8681251F82410C8646DB264B2DFF8B5
:102520005C0250F8240010EBC5001FFA8BFBC0F8CA
:1025300010B0002064B2DFF8441251F82410486053
:10254000BDE8F18F2DE9F04104000D0016005FF0A9
:10255000000864B2002C11D064B2012C02D064B225
:10256000022C02D16DB2022D08DB64B2032C05D01F
:1025700040F2E311DFF8FC0100F06FF964B2002CC7
:1025800005D0022C19D00DD3032C1FD027E042F226
:102590001170864205D340F2E911DFF8D80100F04E
:1025A0005CF91CE042F21170864205D340F2ED1155
:1025B000DFF8C00100F051F911E0652E05D340F2BB
:1025C000F111DFF8B00100F048F908E0652E05D3FD
:1025D0004FF4FB71DFF89C0100F03FF9FFE764B2B4
:1025E000DFF8980150F8240080688046B8F1000FA9
:1025F000F5D064B2002C05D0022C17D00CD3032CDC
:102600001DD025E018F1010000FB06F042F2107128
:10261000B0FBF1F007001BE018F1010000FB06F031
:1026200042F21071B0FBF1F0070011E018F1010067
:1026300000FB06F06421B0FBF1F0070008E018F1A0
:10264000010000FB06F06421B0FBF1F00700FFE79A
:102650006DB264B2DFF8240150F8240010EBC5001D
:102660000761BDE8F08110B5040064B2012C07D009
:1026700064B2022C04D040F2DA213E4800F0EDF8BA
:1026800064B22000012802D0022811D021E037488E
:10269000006850F00070354908604FF4C061202098
:1026A00000F06EF84FF4E0610D2000F069F815E0DD
:1026B0002F48006850F080702D4908604FF4C061C9
:1026C000322000F05DF84FF4C061332000F058F87C
:1026D00004E040F21231274800F0BFF864B2274806
:1026E00050F82400406D50F0040064B2234951F8C2
:1026F0002410486564B2214850F82400D0F88000C6
:1027000050F0080064B21D4951F82410C1F880004F
:10271000002064B2194951F82410C8644FF6FF70C4
:1027200064B2164951F82410886064B2134850F816
:102730002400D0F8800050F0010064B20F4951F835
:102740002410C1F8800064B20C4850F82400406D99
:1027500050F0010064B2094951F824104865002086
:1027600064B2064951F82410486010BD3C80044012
:10277000308004400C4D0000C813FF1F340BFF1FB6
:1027800010B4294A12684FF40073C0B24409A34040
:102790001A43254B1A60C0B24211244B53F8222031
:1027A000012310F01F04A340C2F8A030C0B210F003
:1027B0001F02C0B243111D4C54F8233043F82210BD
:1027C00010BC704710B4184A12684FF40073C0B2BE
:1027D0004409A3401A43144B1A60C0B24211134B70
:1027E00053F82220012310F01F04A340C2F8A030A8
:1027F00031F4E061C0B210F01F02C0B243110B4CC3
:1028000054F8233053F8222012F4E0621143C0B28E
:1028100010F01F02C0B24311044C54F8233043F8A7
:10282000221010BC7047000038800440B40BFF1F1A
:10283000DFF800F0690CFF1FDFF800F08D0CFF1FC0
:10284000BFF34F8F4648006810F4E06045490843E5
:1028500043490860BFF34F8FFEE738B504000D0011
:10286000002000F08DF82A0021003F4800F0C0F859
:10287000002000F0A2F84FF47A7000F0E6F8F2E7DA
:1028800038B504000D00210049B2042000F000FA20
:10289000200032BD10B50024042000F013FA0420FB
:1028A00000F046FA002841D1002000F069F8042029
:1028B00000F03EFA012801D101200400002000F0C0
:1028C0007CF82A4800F094F84FF4FA7000F0BDF854
:1028D000E4B2012CEBD1042000F02AFA0028E6D162
:1028E000042000F025FA002806D1002000F065F849
:1028F000642000F0AAF8F3E7042000F019FA012898
:1029000006D1002000F059F8322000F09EF8F3E7DD
:10291000174800F06DF8FFF78BFF642000F095F882
:102920000020FFF789FFFFF78BFFC0E710BD10B550
:1029300010480468012000F023F8012000F03DF861
:10294000E4B20F200C4900FB0412E4B221000B4852
:1029500000F04EF84FF47A7000F077F8EDE70000E1
:102960000CED00E00400FA05344E0000044F0000B6
:10297000684E000004ED00E02C04FF1FF84B00003F
:1029800010B5040064B2042C07DA0122012164B2FC
:102990001648205C00F0E4F90EE00420040020005A
:1029A000441E40B2002807D00122012164B20F4822
:1029B000205C00F0D5F9F2E710BD10B5040064B258
:1029C000042C05DA64B20948205C00F059FA0CE0E6
:1029D000042004002000441E40B2002805D064B248
:1029E0000248205C00F04CFAF4E710BDE80BFF1F32
:1029F0000EB400B582B003A90091024600AB0121DC
:102A0000034878440A30FDF707FD06BC5DF810FB6B
:102A1000D124000010B50400002C15D0B4F1807F43
:102A200003D329210F48FFF718FF00200E49086043
:102A30000E48046000200E49086005200A4908601D
:102A400009480068C003FBD510BD10B50400200084
:102A5000441E002804D007480068FFF7DBFFF6E7B4
:102A600010BD0000344C000010E000E014E000E075
:102A700018E000E0C013FF1F2DE9F84304000D002B
:102A800064B2002C08D0022C2CD018D3042C4FD0C8
:102A90003BD3052C5FD071E0DFF81002006850F4E2
:102AA0008060DFF8081208604FF440716620FFF77D
:102AB00067FE4FF440716720FFF762FE5EE0DFF8CB
:102AC000EC01006850F40060DFF8E01108604FF49A
:102AD00040714320FFF754FE4FF440714420FFF74C
:102AE0004FFE4BE0DFF8C401006850F48050DFF87F
:102AF000BC1108604FF440716320FFF741FE4FF4B2
:102B000040716220FFF73CFE38E0DFF8A00100686A
:102B100050F40050DFF8941108604FF440718520A4
:102B2000FFF72EFE4FF440718420FFF729FE25E0C9
:102B3000DFF87C01006850F48060DFF874110860F1
:102B40004FF440714E20FFF71BFE4FF440714F20B1
:102B5000FFF716FE12E0DFF85801006850F400603D
:102B6000DFF84C1108604FF440718920FFF708FE30
:102B70004FF440718820FFF703FEFFE764B2DFF8EF
:102B8000340150F82400C07810F0F30064B2DFF88C
:102B9000241151F82410C87064B2DFF8180150F8FD
:102BA0002400807864B2DFF80C1151F8241088708A
:102BB00064B2002C02D064B2012C07D1DFF8F80017
:102BC00000684FF47A714843814606E0DFF8EC0074
:102BD00000684FF47A71484381462801B9FBF0F050
:102BE0000600B6B2B6F5005F02DB41F6FF700600E4
:102BF000B9FBF5F0B6B2B0EB06100700BFB2202F5C
:102C000003DBDC212E48FFF728FE64B2294850F888
:102C10002400007810F0E0008046B6B2300A10F0D0
:102C20001F0050EA080064B2224951F824100870CD
:102C300064B2204850F82400467064B21D4850F831
:102C40002400807A10F0E000804617F01F0050EA60
:102C5000080064B2174951F82410887264B215480C
:102C600050F82400007C50F0880064B2114951F8FB
:102C70002410087464B20F4850F82400C07850F053
:102C80000C0064B20B4951F82410C870BDE8F18300
:102C900040B2084A52F8202012791206F8D540B204
:102CA000044A52F82020D17170470000348004405B
:102CB00028800440C80BFF1FC013FF1FC813FF1F4D
:102CC000A84D000010B5040064B2082C0DDA0022F3
:102CD000002164B22148205C00F042F8032164B274
:102CE0001E48205CFFF76EFD14E008200400200061
:102CF000441E40B200280DD00022002164B21748C3
:102D0000205C00F02DF8032164B21448205CFFF72A
:102D100059FDECE710BD10B5040064B20F48205C0B
:102D200000F0CAF8002801D1002000E0012010BD09
:102D300010B50400200040B2FFF7EDFF00280AD1D3
:102D40000A20FFF782FE200040B2FFF7E4FF0028D0
:102D500001D1002000E0012010BD0000E00BFF1FAA
:102D600070B504000D0016004FF480712000C0B251
:102D7000FFF706FD6DB2002D11D1E4B260115D497F
:102D800051F82000E4B261115A4A52F82110496901
:102D9000012214F01F039A409143416136E0E4B2EE
:102DA0006011544951F82000E4B26111514A52F8BF
:102DB00021104969012214F01F039A401143416117
:102DC000F6B2002E11D1E4B260114A4951F8200048
:102DD0000068012114F01F0291408843E4B26111A0
:102DE000444A52F82110086010E0E4B260114149F1
:102DF00051F820000068012114F01F02914008439F
:102E0000E4B261113B4A52F82110086070BD38B538
:102E100004000D00E4B26011364951F82000406909
:102E200014F01F01C840C00703D463213248FFF7E4
:102E300014FDEDB2002D11D1E4B260112D4951F80D
:102E400020000068012114F01F0291408843E4B281
:102E50006111284A52F82110086010E0E4B26011B4
:102E6000244951F820000068012114F01F0291400C
:102E70000843E4B261111F4A52F82110086031BDC5
:102E800010B50400E4B260111A4951F820004069FD
:102E900014F01F01C840C00703D47B211648FFF778
:102EA000DCFCE4B26011134951F82000012114F058
:102EB0001F029140C16010BD10B50400E4B2601162
:102EC0000C4951F82000406914F01F01C840C007A8
:102ED00003D58C210848FFF7C0FCE4B26011054916
:102EE00051F82000006914F01F01C84010F00100E3
:102EF00010BD0000440BFF1F404D0000012110F0E9
:102F00001F02914040B24209DFF8103443F822100A
:102F100070470000F8B504000920DFF804140860C9
:102F200000200500802D05DA285DDFF8F8136854CD
:102F30006D1CF7E70020DFF8F013086000200600A2
:102F40007F2E0DDADFF8DC03305CDC2806DADFF8F0
:102F5000D8030068401CDFF8D0130860761CEFE748
:102F600000200600052E22DA701C0700802F1CDAD4
:102F7000DFF8B003305CDFF8AC13795C884212D222
:102F8000DFF8A0033056DFF8A4130870DFF89403CD
:102F9000385CDFF890137054DFF890030078DFF8A6
:102FA0008413785401E07F1CE0E7761CDAE7052003
:102FB00006000A2E22DA701C0700802F1CDADFF8C8
:102FC0006403385CDFF85C13715C884212D2DFF86E
:102FD00054033056DFF854130870DFF84803385CA8
:102FE000DFF840137054DFF844030078DFF834133F
:102FF000785401E07F1CE0E7761CDAE7C84890EDE2
:10300000000AB8EEC00ADFED870A80EE200AC54844
:103010004078C449C9780818C249C9794018C149DB
:10302000497A401800EE900AF8EEE00A20EE200AF5
:1030300010EE100A00F0A6F90022BD4BFEF700FAD0
:10304000FEF722FBBB490870BB48006807007F2FD2
:103050001FDA385D39194978401AB649097888422B
:1030600015DB385D39198978401AB24909788842E8
:103070000DDB385D3919C978401AAE4909788842A4
:1030800001DBAE4807600120AD49086001E07F1C0C
:10309000DDE7A94800680600012E30DB305D3119FC
:1030A00011F8011C401AA3490978884217DB305DEA
:1030B000311911F8021C401A9E49097888420EDB2A
:1030C000305D311911F8031C401A9A490978884279
:1030D00005DB9C48066001209B4908600FE0994889
:1030E000026812B20121052000F0F0FA934802684C
:1030F00012B20221052000F0E9FA761ECCE79248D0
:103100000068002808D18E480068012804D18B4847
:1031100000682F38884908608B480068012808D16A
:1031200087480068002804D1864800682F3082490B
:1031300008608548006801280DD181480068012891
:1031400009D17E4800687F4909680818022190FB70
:10315000F1F0794908607C480068794909680843BA
:10316000002803D1794800687349086077480068EF
:103170007749086070480068744908606E480068C4
:10318000D0F14000734908607348006873490860D3
:1031900070480068704908606E4890ED000AB8EE0B
:1031A000C00A6F48D0ED000A9FED5B1A00EE201AAE
:1031B0006848006869490968401A00EE100AB8EECC
:1031C000C00A6848D0ED000A00EE201ABDEEC10A20
:1031D00010EE100A64490880F1BD80B55D480068B2
:1031E00000F0FBFA5B4908605A480068042804DADA
:1031F00040F6AC505D49088003E04FF4FA605B494B
:103200000880494800687F2803DB00205749088070
:10321000FEE75548B0F9002000210120FFF792F9A0
:1032200001BD00000000C84280B572B64FF4614194
:103230000420FFF721FC00F08CF90220FFF713FABD
:103240004B4B4C4A4C49022000F025FB082000F073
:10325000F9FA0FF29501542000F0F9FB4420FFF732
:103260004DFEA22347F6FF720821012000F011FC59
:10327000A22347F6FF722021022000F00AFC00235F
:1032800042F2107201210020FFF78EF8002342F273
:10329000107202210020FFF787F8002342F210721B
:1032A00003210020FFF780F8002342F2107204216E
:1032B0000020FFF779F80023322200210120FFF7D8
:1032C00073F8002200216120FFF74AFD002200214F
:1032D0006020FFF745FD62B600F008FBFFF77DFFB9
:1032E0002548FFF717FEF7E780B524480068401C23
:1032F0002249086000F003FB204800680F2804DB27
:1033000000F0F0FC00201D4908601D48006850F0E6
:1033100001001B49086001BD0080574400E100E046
:10332000D012FF1F0013FF1FD812FF1F2D14FF1F05
:10333000000010402C14FF1F2004FF1FF412FF1F79
:10334000FC12FF1FF012FF1FF812FF1FE812FF1FF1
:10335000EC12FF1FDC12FF1FE012FF1FE412FF1F21
:103360001804FF1F1C04FF1F2A14FF1F2814FF1F2F
:10337000500FFF1FD00EFF1F500EFF1FD412FF1F54
:103380000C7103405FF0FF0C1CEAD05114BF614583
:1033900006E0C110400721F0E04101F160517047A3
:1033A00079B900F0004100020AD0B0FA80FC00FABE
:1033B0000CF001F16051A1EB0C5101EBD021400563
:1033C000704741020CBF40F4E0016FF000010020A3
:1033D000704700000821DFF8D822126852F400225A
:1033E000DFF8CC321A6000BFDFF8C422126832F472
:1033F0008032DFF8BC321A6000BF0A00511ED2B220
:10340000002A25D0020608D5DFF8A422126852F45B
:103410000032DFF89C321A6007E0DFF8942212686D
:1034200032F40032DFF888321A60DFF88422126842
:1034300052F48032DFF878321A6000BFDFF8702271
:10344000126832F48032DFF868321A604000D4E744
:10345000704700000821DFF85822126832F4002279
:10346000DFF84C321A60DFF84822126832F48032FA
:10347000DFF83C321A600A00511ED2B2002A25D071
:10348000020608D5DFF82822126852F40032DFF86D
:1034900020321A6007E0DFF81822126832F4003296
:1034A000DFF80C321A60DFF80822126852F480321A
:1034B000DFF8FC311A6000BFDFF8F421126832F443
:1034C0008032DFF8EC311A604000D4E7704738B53D
:1034D00004000D00B5F15000C0B2FFF7BBFFE4B22D
:1034E000200950F01000C0B2FFF7B4FF14F00F0035
:1034F000FFF7B0FF31BD70B5040000200500EDB24C
:10350000082D17DAB5F15000C0B2FFF7A3FF012074
:10351000FFF7A0FF1020FFF79DFF00200600F6B286
:10352000802E05DA2000C0B2FFF754FF761CF6E7C4
:103530006D1CE4E770BD80B2002809D043F226423A
:1035400011000A00511E92B2002AFAD1401EF2E781
:10355000704780B54FF48070DFF8581108604FF461
:103560008070DFF8541108604FF48070DFF84C1160
:1035700008604FF48070DFF8481108605FF4702035
:10358000DFF840110860DFF82801006850F480304F
:10359000DFF81C110860DFF81801006830F48020A3
:1035A000DFF80C1108603220FFF7C5FFDFF80001DB
:1035B000006850F48020DFF8F8100860AE20FFF7B4
:1035C00049FF0020FFF746FF1020FFF743FF402090
:1035D000FFF740FF8120FFF73DFFCF20FFF73AFFC5
:1035E000A120FFF737FFC820FFF734FFA620FFF721
:1035F00031FFA820FFF72EFF3F20FFF72BFFD3203E
:10360000FFF728FF0020FFF725FFD520FFF722FF57
:103610008020FFF71FFFD920FFF71CFFF120FFF7E5
:1036200019FFDA20FFF716FF1220FFF713FFDB2048
:10363000FFF710FF4020FFF70DFF2020FFF70AFFE4
:103640000220FFF707FF8D20FFF704FF1420FFF78C
:1036500001FFA420FFF7FEFEA620FFF7FBFEAF2030
:10366000FFF7F8FE0020FFF746FF00210020FFF7DC
:103670002EFF01BDF8B504000D0016002900C9B2E7
:103680002000C0B2FFF723FF203E00200700FFB25A
:10369000062F0ADAFFB2B6B206200B4900FB06106D
:1036A000385CFFF797FE7F1CF1E7F1BD00000000DA
:1036B00080F00F4040B0044044B0044048B00440A3
:1036C0004CB0044094F00F407046000070B5040008
:1036D0000D00160036B2002E41D55FF0FF3016FB0C
:1036E00000F62D222900C9B22000C0B2FFF7C2FFA8
:1036F00036B24FF47A7096FBF0F100FB1160642152
:1037000090FBF1F010F1300292B22900C9B2A01D75
:10371000C0B2FFF7AFFF36B2642096FBF0F100FBBA
:1037200011600A2190FBF1F010F1300292B22900F1
:10373000C9B214F10C00C0B2FFF79CFF36B20A20E8
:1037400096FBF0F100FB116010F1300292B22900FB
:10375000C9B214F11200C0B2FFF78CFF3CE02B227B
:103760002900C9B22000C0B2FFF784FF36B24FF47F
:103770007A7096FBF0F100FB1160642190FBF1F090
:1037800010F1300292B22900C9B2A01DC0B2FFF7F9
:1037900071FF36B2642096FBF0F100FB11600A2144
:1037A00090FBF1F010F1300292B22900C9B214F18D
:1037B0000C00C0B2FFF75EFF36B20A2096FBF0F1B4
:1037C00000FB116010F1300292B22900C9B214F16D
:1037D0001200C0B2FFF74EFF70BD002848BF404244
:1037E0007047000038B504000225E4B2022C03DB68
:1037F00037216F48FFF731F82800451EC0B2002876
:1038000007D02100C9B2EDB26A48285CFFF7FFFA81
:10381000F2E731BD38B504000225E4B2022C03DB27
:1038200044216348FFF719F82800451EC0B200285C
:1038300007D02100C9B2EDB25F48285CFFF7E7FA74
:10384000F2E731BD38B504000225EDB2002D14D0E9
:103850006D1EEDB25948285600F072FB002201217E
:10386000EDB25548285CFFF77BFA00220121EDB24A
:103870005048285CFFF774FAE7E751480460504865
:1038800000685049096801FB00F1002000F0B4FC19
:1038900000F09EF831BD0CB438B505000C006DB2D7
:1038A000032D03DB65214248FEF7D7FF00226DB2EE
:1038B000022D04DA6DB2444B43F8254013E06DB29B
:1038C000022D10D104AB180021002B005D1E5BB24D
:1038D000002B08D0D2B23C4B43F82210521C036894
:1038E0001900001DF1E731BC5DF80CFB01203749E0
:1038F0000870364890F900000228FAD1704780B568
:10390000324890F90000012805D100F010F802209B
:103910002E49087001E000F05BF801BD81B0009015
:1039200000994A1E00920029FAD101B0704770B583
:10393000802500240020FFF76DFF0A20FFF7EEFF2F
:103940000120FFF74FFF0A20FFF7E8FF0120FFF7F4
:1039500061FF0A20FFF7E2FF0020FFF743FF0A2084
:10396000FFF7DCFF2800451EC0B200281ED0002053
:10397000FFF750FF022006003000461EC0B20028AC
:103980000CD00021F6B20D48305600F0E0FBE4B256
:10399000F6B20D4951F826106054EDE70120FFF70B
:1039A00039FF0A20FFF7BAFF641CDBE770BD000097
:1039B0006C4C0000F00BFF1FF40BFF1FEC0BFF1F04
:1039C000CC13FF1FC813FF1FD013FF1F2E14FF1FA0
:1039D00010B580240020FFF71DFF0120FFF79EFF98
:1039E0000120FFF7FFFE0120FFF798FF0120FFF7FE
:1039F00011FF0120FFF792FF0020FFF7F3FE0120E7
:103A0000FFF78CFF2000441EC0B200280CD000201D
:103A1000FFF700FF0120FFF781FF0120FFF7FAFE0B
:103A20000120FFF77BFFEDE710BD000010B504009B
:103A30004FF4007094FBF0F101FB1041002903D01A
:103A40001E210B48FEF709FF0A48046010BD38B577
:103A500004000D00074800680749884203D0302160
:103A60000348FEF7FAFE64B2034840F8245031BD23
:103A7000DC4D000008ED00E00000FF1F012110F008
:103A80001F02914040B24209DFF8283243F8221069
:103A900070472DE9F84305000E00170098465FF0C7
:103AA00000095FFA89F9B9F1000F01D101240EE094
:103AB0005FFA89F9B9F1010F01D1022407E05FFA39
:103AC00089F9B9F1020F01D1042400E01024B7F5FF
:103AD000004F02D347F6FF7007006DB27C4840F8F4
:103AE00025707548006850F00200734908607348FB
:103AF000006850F002007149086076486DB26901B3
:103B00006F4A885073486DB2690101F1804111F527
:103B10001041086100206DB2690101F1804111F589
:103B20001041888000206DB2690101F1804111F5DA
:103B3000104188825FFA89F95FEA092010F4E06099
:103B40005FFA89F919F0070108436DB2690101F1C3
:103B5000804111F51041C88038004004400C6DB21E
:103B6000690101F1804111F51041C8823800C0059A
:103B7000C00D6DB2690101F1804111F51041C8839A
:103B80005048006830F080004E490860E4B26DB2E1
:103B9000680100F1804010F51040846078426DB2F9
:103BA000690101F1804111F51041C86000206DB23A
:103BB000690101F1804111F5104188610A206DB25F
:103BC000690101F1804111F510418883F6B2700955
:103BD000313050F080006DB23B4968543E48006877
:103BE0004FF40071F6B27209914008433A490860F7
:103BF000F6B27011394951F82000F6B27111374A06
:103C000052F821104969012216F01F039A4091438E
:103C10004161F6B216F01F00F6B27111304A52F847
:103C2000211018F00302C8F3811353EA024252F440
:103C3000807241F82020F6B2002E01D0012000E071
:103C40000020F6B27111254A52F82110F6B2721115
:103C5000224B53F822205269012313FA00F032EA72
:103C600000004861194800680121A940084317492C
:103C70000860280040B2FFF701FFBDE8F1830100B2
:103C800049B2134850F8210049B24A0102F180427A
:103C900012F51042D28A801A704740B20C4951F88E
:103CA000201040B2420102F1804212F51042D1824E
:103CB0007047000000E100E0408004403C80044088
:103CC0000090004000800040001002400C80004046
:103CD0008013FF1F0C00044038800440440BFF1F7A
:103CE000B40BFF1FF8B5002600270120FFF7C7FF20
:103CF00006000120FFF7D1FF36B2002E01D536B203
:103D000076426020FFF7D8F80400E4B2002C01D11D
:103D100036B2764200F0AEFA0220FFF7B0FF07009D
:103D20003FB2002F01D53FB27F426120FFF7C4F8B8
:103D30000500EDB2002D01D13FB27F420220FFF716
:103D4000ACFFDFF8C401B0F9000036B2801B00EE12
:103D5000100AB8EEC00ADFF8B40180ED000ADFF8FF
:103D6000AC0190ED000ADFF8AC01D0ED000A20EEC6
:103D7000200ADFF8A40180ED000ADFF8900190ED41
:103D8000000ADFF89801D0ED000A20EE200ADFF8E3
:103D9000900180ED000ADFF8980190ED000ADFF84D
:103DA0008001D0ED000A30EE200ADFF8840180EDBA
:103DB000000ADFF87401DFF8741109680160DFF8A8
:103DC0006401DFF84C1109680160DFF84401DFF895
:103DD0003C1109680160DFF8400190ED000ADFF84E
:103DE0005001D0ED000A30EE200ADFF8400180EDEE
:103DF000000ADFF8400190ED000ADFF83001D0ED55
:103E0000000A30EE200ADFF8300180ED000ADFF80A
:103E1000280190ED000ADFED3A0AB4EE600AF1EEF7
:103E200010FA04DBDFF81001DFF810110160DFF891
:103E3000080190ED000ADFED330AB4EE600AF1EEFE
:103E400010FA03D5DFF8F0002E490160DFF8E80032
:103E500090ED000AB5EE400AF1EE10FA26D5DFF833
:103E6000D80090ED000AB1EE400ABCEEC00A10EE98
:103E7000102A01210020FEF765FB0022022100200C
:103E8000FEF760FB002203210020FEF75BFBDFF85A
:103E9000A80090ED000AB1EE400ABCEEC00A10EE98
:103EA000102A04210020FEF74DFB21E00022012111
:103EB0000020FEF747FBDFF8800090ED000ABCEE23
:103EC000C00A10EE102A02210020FEF73BFBDFF8AB
:103ED000680090ED000ABCEEC00A10EE102A032123
:103EE0000020FEF72FFB002204210020FEF72AFB12
:103EF000320012B206210620FFF7E8FBF1BD0000F8
:103F000001A00C4600A00CC62814FF1F3C0EFF1F8A
:103F1000400EFF1F1404FF1F300EFF1F1004FF1F71
:103F2000340EFF1F440EFF1F280EFF1F2C0EFF1F15
:103F3000380EFF1F4C0EFF1F480EFF1F00A00C463F
:103F400038B5040064B26511EDB2002D02D0012D28
:103F500011D021E0A348006850F00060A14908603A
:103F6000A148006830F090009F4908609E480068B2
:103F70009D49086014E09D48006850F000609B492E
:103F800008609948006830F41040974908609648E6
:103F900000689549086003E033219548FEF75DFC11
:103FA00064B22000002800F08980012800F086809B
:103FB000032800F0838008284ED0092851D00A2811
:103FC00054D00B2857D00C285AD00D285DD00E287D
:103FD00060D00F2863D0102870D0112864D0122828
:103FE00067D013286AD0142868D01A2866D01D28F4
:103FF00064D01E2862D0202861D021285FD02328D9
:104000005DD024285CD025285FD0262862D02728C0
:1040100065D0282868D029286BD02A286ED02B2874
:1040200071D02C2874D02D2877D02E287AD02F2824
:104030007DD0302800F0858031287DD0322800F0F6
:10404000808033287DD034287BD03A2879D03D2811
:1040500077D03E2875D075E000212020FEF790FB38
:1040600074E000212120FEF78BFB6FE00021072088
:10407000FEF786FB6AE000210820FEF781FB65E081
:1040800000212220FEF77CFB60E000212320FEF7C8
:1040900077FB5BE000214020FEF772FB56E0002139
:1040A0004120FEF76DFB51E000219820FEF768FBF0
:1040B0004CE000219920FEF763FB47E046E045E035
:1040C00000218020FEF75CFB40E000218120FEF70C
:1040D00057FB3BE000218220FEF752FB36E0002137
:1040E0008320FEF74DFB31E000212020FEF748FB46
:1040F0002CE000212120FEF743FB27E000212420B3
:10410000FEF73EFB22E000212520FEF739FB1DE0F3
:1041100000212620FEF734FB18E000212720FEF7BF
:104120002FFB13E000212A20FEF72AFB0EE00021DE
:104130002B20FEF725FB09E000211120FEF720FBD4
:1041400004E003E09A212A48FEF787FB31BDF8B569
:1041500004000D0064B266110027290049B2200056
:1041600040B200F01CF876B2224850F826000068F1
:104170000006F8D576B21F4850F8260000690700FF
:1041800076B21C4850F82600006830F0800076B205
:10419000184951F826100860380080B2F2BD30B4DA
:1041A00040B2421110F01F0349B28C0014F00C040D
:1041B00054F0500452B20F4D55F82250AC60042414
:1041C00052B20C4D55F82250EC60DBB213F01F04D4
:1041D00054F0400452B2074D55F822502C6030BCC8
:1041E000704700003C800440188004403080044048
:1041F000A44C00002404FF1F38B504000D00002D5E
:1042000003D122211748FEF728FB1748006850F415
:10421000000015490860002014490860681E64B257
:104220002101134A885064B2114810EB0410C06891
:1042300050F0010064B20E4911EB0411C86064B281
:104240000B4810EB041080684008400064B2084935
:1042500011EB04118860032064B2054911EB0411CD
:10426000886031BD744D00003C8004400070034004
:104270000071034006480068400840000449086097
:104280000348006850F001000149086070470000D1
:1042900000000440DFF800F0D90DFF1F40B2DFF846
:1042A000B41331F8201040B20128C0F2788140B236
:1042B000162880F274810022DFF89C331A7089B2CC
:1042C000652904DA0022DFF890335A707DE089B264
:1042D000C92904DA0122DFF880335A7075E089B207
:1042E000B1F5967F04DC0222DFF86C335A706CE083
:1042F00089B2B1F5C87F04DC0322DFF85C335A7061
:1043000063E089B2B1F5FA7F04DC0422DFF84833B8
:104310005A705AE089B2B1F5167F04DC0522DFF845
:1043200038335A7051E089B2B1F52F7F04DC062290
:10433000DFF824335A7048E089B2B1F5487F04DCD5
:104340000722DFF814335A703FE089B2B1F5617F7C
:1043500004DC0822DFF800335A7036E089B2B1F588
:104360007A7F04DC0922DFF8F0325A702DE089B23E
:1043700040F24D42914203DA0A22B74B5A7024E0D0
:1043800089B2B1F5966F03DC0B22B34B5A701CE077
:1043900089B240F21552914203DA0C22AE4B5A70A8
:1043A00013E089B2B1F5AF6F03DC0D22AA4B5A704E
:1043B0000BE089B240F2DD52914203DA0E22A64BA5
:1043C0005A7002E00F22A44B5A7089B2332903DAE3
:1043D0000022A14B9A7071E089B2652903DA0122AB
:1043E0009D4B9A706AE089B2972903DA02229A4BB0
:1043F0009A7063E089B2C92903DA0322964B9A7056
:104400005CE089B2FB2903DA0422934B9A7055E0F1
:1044100089B2B1F5967F03DC05228F4B9A704DE08F
:1044200089B2B1F5AF7F03DC06228B4B9A7045E071
:1044300089B2B1F5C87F03DC0722874B9A703DE053
:1044400089B2B1F5E17F03DC0822834B9A7035E035
:1044500089B2B1F5FA7F03DC09227F4B9A702DE017
:1044600089B240F22722914203DA0A227A4B9A70EB
:1044700024E089B2B1F5167F03DC0B22764B9A70EB
:104480001CE089B240F28B22914203DA0C22724B7B
:104490009A7013E089B2B1F52F7F03DC0D226E4BC9
:1044A0009A700BE089B240F2EF22914203DA0E22B9
:1044B000694B9A7002E00F22674B9A7089B21A29F1
:1044C00003DA0022644BDA7069E089B2332903DA37
:1044D0000122614BDA7062E089B24C2903DA0222D0
:1044E0005D4BDA705BE089B2652903DA03225A4B2F
:1044F000DA7054E089B27E2903DA0422564BDA706E
:104500004DE089B2972903DA0522534BDA7046E071
:1045100089B2B02903DA06224F4BDA703FE089B244
:10452000C92903DA07224C4BDA7038E089B2E22954
:1045300003DA0822484BDA7031E089B2FB2903DA4A
:104540000922454BDA702AE089B2B1F58A7F03DA95
:104550000A22414BDA7022E089B2B1F5967F03DC82
:104560000B223D4BDA701AE089B2B1F5A37F03DA72
:104570000C22394BDA7012E089B2B1F5AF7F03DC5F
:104580000D22354BDA700AE089B2B1F5BC7F03DA4F
:104590000E22314BDA7002E00F222F4BDA70704797
:1045A00010B50400200040B2FFF778FE2B480078D9
:1045B00010F0FD00294908702848007850F01000DC
:1045C00026490870B8202649087026480078C00699
:1045D000FBD424480078C0F38100C0B20228F8D18F
:1045E0001D48C3781C4882781B4841781A480078D7
:1045F000FFF750FE64B2174810EB8400807810F08B
:1046000007001949087064B2124810EB8400C078A2
:1046100010F01F0050F04000144908701148007855
:104620008006FBD50F4800784006FBD50C48007883
:1046300010F03F000A4908700A480078C0F3810072
:10464000C0B20328F8D164B2024830F82400C0B2E6
:1046500010BD0000580BFF1FB00BFF1F01400640AC
:104660000040064006400640044006400540064023
:104670000000000000000000002F00000000070004
:10468000070000147F147F1400242A7F2A1200627E
:10469000640813230036495522500000050300002A
:1046A00000001C224100000041221C000014083EB2
:1046B00008140008083E0808000000A06000000878
:1046C00008080808000060600000002010080402CC
:1046D000003E5149453E0000427F4000004261518A
:1046E0004946002141454B31001814127F10002724
:1046F00045454539003C4A494930000171090503E7
:1047000000364949493600064949291E0000363617
:10471000000000005636000000081422410000147A
:104720001414141400004122140800020151090657
:1047300000324959513E007C1211127C007F4949D8
:104740004936003E41414122007F4141221C007F09
:1047500049494941007F09090901003E4149497A17
:10476000007F0808087F0000417F41000020404191
:104770003F01007F08142241007F40404040007FFD
:10478000020C027F007F0408107F003E4141413E41
:10479000007F09090906003E4151215E007F091989
:1047A00029460046494949310001017F0101003F86
:1047B0004040403F001F2040201F003F4038403F06
:1047C000006314081463000708700807006151496A
:1047D000454300007F41410000552A552A550000FD
:1047E00041417F000004020102040040404040407B
:1047F000000001020400002054545478007F484413
:10480000443800384444442000384444487F003849
:104810005454541800087E0901020018A4A4A47C72
:10482000007F080404780000447D4000004080843C
:104830007D00007F102844000000417F4000007C84
:1048400004180478007C0804047800384444443890
:1048500000FC242424180018242418FC007C0804DC
:10486000040800485454542000043F444020003CB5
:104870004040207C001C2040201C003C4030403C3C
:10488000004428102844001CA0A0A07C00446454CC
:104890004C44141414141414DFF800F05B280000C6
:1048A000DFF800F04B2A0000F0205449087053480C
:1048B00000780006FBD5514800787121084201D0EC
:1048C000002000E00120704780B54D48006850F49A
:1048D00000204B490860494800780006FBD5F020CD
:1048E000464908700A20FFF7DBFF01BD10B582B012
:1048F0000400A4B24FF4805000FB04F000900920A3
:10490000404908709DF802003F4908709DF8010079
:104910003E4908709DF800003D490870FFF7C4FF4C
:10492000002801D100200EE0A4B2002C0AD15FF0D3
:10493000FF327FF001034FF48161200080B200F06C
:1049400003F800E0012016BDF0B583B006000F00AB
:1049500014001D00B6B24FF48050BFB200FB0670C9
:104960000190BFB2082097FBF0F101FB1071002904
:1049700003D0EA212748FFF78FFFBFB2B7F5805F6A
:1049800003DDEC212348FFF787FF9DF806001E4951
:1049900008709DF805001D4908709DF804001C4929
:1049A000087000949DF803001B4908709DF80200F0
:1049B0001A4908709DF80100194908709DF8000017
:1049C0001849087007200F49087000959DF80300EA
:1049D000154908709DF80200144908709DF80100FF
:1049E000134908709DF8000012490870FFF75CFF3A
:1049F000002801D1002000E00120FEBD000002409F
:104A000004F0014007000240060002400500024099
:104A100004000240D84C00000B0002400A00024093
:104A200009000240080002400F0002400E00024050
:104A30000D0002400C000240F0B4114E3668340004
:104A40000F4E366856F47F060D4F3E600E0616F088
:104A5000706656EA0076170517F470073E431F0488
:104A600017F470273E43074F3E6000263500EDB235
:104A70009D4201D26D1CFAE7014E3460F0BC7047D4
:104A800000F001404480044080B500F095F800F04B
:104A90002AF800F00AF8FDF7FDFE012201210420AA
:104AA000FEF75EF9FEF7C0FBFEE780B50C20FFF7CE
:104AB00077FD33490860324800684FF47A71484303
:104AC000304908602F4800682F490968C1F3036125
:104AD000491CB0FBF1F02D4908604FF461410420FE
:104AE000FDF7CAFF01BD2DE9F8432948294988424D
:104AF0000DD000208046B8F5826F08D2254850F8C6
:104B00002800234941F8280018F10108F3E720485C
:104B1000FEF78CFF204807002048060020480400CC
:104B2000A01B80464046B0F10108002804D0307830
:104B30003870761C7F1CF5E71A4881461A48050034
:104B4000B5EB090080464046B0F10108002805D0C9
:104B5000002089F8000019F10109F4E7134814490D
:104B6000144A531A98464346B3F10108002B04D067
:104B70000B780370491C401CF5E7BDE8F183000089
:104B8000C413FF1FC013FF1F44800440C813FF1F3E
:104B90000000FF1F000000001004FF1FD4190000D8
:104BA000FC210000280EFF1F2F14FF1F380CFF1FD1
:104BB00098480000884A000080B500F008F80C48CA
:104BC00000884FF6FE7108400949088001BDEFF3E7
:104BD000118072B64CF22051064A11804DF6281110
:104BE000044A1180C0B2002800D162B670470000AC
:104BF000002005400E2005400A2A2A2A2A646566FC
:104C000061756C745F69737220656E74657265643A
:104C1000206F6E20766563746F722025642A2A2ABD
:104C20002A2A0A0A257320496E7465727275707497
:104C300000000000433A5C55736572735C64656CF8
:104C40006C5C4465736B746F705C786975676169DF
:104C50005C436869705C7372635C4D4B36305F53C4
:104C600079735469636B2E6300000000433A5C550E
:104C7000736572735C64656C6C5C4465736B746FB4
:104C8000705C7869756761695C426F6172645C73BE
:104C900072635C5643414E5F54534C313430312E75
:104CA00063000000433A5C55736572735C64656C25
:104CB0006C5C4465736B746F705C7869756761696F
:104CC0005C436869705C7372635C4D4B36305F6146
:104CD00064632E6300000000433A5C557365727391
:104CE0005C64656C6C5C4465736B746F705C786954
:104CF000756761695C436869705C7372635C4D4B96
:104D000036305F666C6173682E630000433A5C5511
:104D1000736572735C64656C6C5C4465736B746F13
:104D2000705C7869756761695C436869705C73720F
:104D3000635C4D4B36305F66746D2E63000000007F
:104D4000433A5C55736572735C64656C6C5C446576
:104D5000736B746F705C7869756761695C436869CF
:104D6000705C7372635C4D4B36305F6770696F2E99
:104D700063000000433A5C55736572735C64656C54
:104D80006C5C4465736B746F705C7869756761699E
:104D90005C436869705C7372635C4D4B36305F5086
:104DA00049542E6300000000433A5C5573657273EA
:104DB0005C64656C6C5C4465736B746F705C786983
:104DC000756761695C436869705C7372635C4D4BC5
:104DD00036305F756172742E63000000433A5C5593
:104DE000736572735C64656C6C5C4465736B746F43
:104DF000705C7869756761695C436869705C73723F
:104E0000635C6D6973632E630000000010B5074991
:104E100079441831064C7C44163404E00A68081DB5
:104E2000511888470146A142F8D110BD2C0000005E
:104E300038000000417373657274696F6E2066619B
:104E4000696C656420696E202573206174206C692B
:104E50006E652025640A0000A3C1FFFF080600005C
:104E6000280EFF1F000000000ABDF8D0D0BDE2CB25
:104E7000F8B2D9D7F7A3ACC7EBD6D8D0C2CBA2C86B
:104E8000EBB9CCBCFE0000004EF68851CEF200011A
:104E9000086840F4700008604FF00070E1EE100AFE
:104EA0007047000000F00BF8002801D0FFF7AEFFBC
:104EB0000020C046C046FEF7B7F900F002F8012016
:104EC000704700F001B800000746384600F002F8CD
:104ED000FBE7000001491820ABBEFBE726000200FB
:104EE00038B504460D46284600F006F8A84218BF1B
:104EF0000024204632BD00000149FDF7C1BC00BFBF
:104F0000F80BFF1F0ABDF8C8EBCBC0D1ADBBB7B5DE
:104F1000C8B4FDA3A1000000C046C046FFF7B4FF1F
:104F2000FFF7C0FF000000000000000000000000CC
:104F30000000000000000000000000000000000071
:104F4000FFFFFFFFFFFFFFFF000000000000000069
:104F50000000000000000000000000000000000051
:104F6000000000000000000000000000FFFFFFFF45
:104F7000FFFF000000000000000000000000000033
:104F80000000000000000000000000000000000021
:104F90000000000000000000000000000000000011
:0C4FA00000000000000000000000000005
:0400000500004F198F
:00000001FF
